:1000000024C048C047C046C045C044C043C042C0E9
:1000100041C040C03FC001C33DC03CC03BC03AC02E
:1000200039C038C037C036C035C034C033C032C024
:1000300031C030C02FC02EC02DC039C3010204080A
:100040001020408004020108660411241FBECFEF77
:10005000D1E0DEBFCDBF11E0A0E0B1E0EAE2FDE01B
:1000600002C005900D92A831B107D9F721E0A8E1AF
:10007000B1E001C01D92AA36B207E1F710E0C5E277
:10008000D0E003C02197FE0148D6C432D107D1F792
:1000900034D449C6B5CFE1E4F0E0E49190B79F7C59
:1000A00090BF9E2F909581110CC02FB7F8948BB301
:1000B00089238BBB809163009823909363002FBFAB
:1000C00008958FB7F8942BB3E22BEBBB209163001C
:1000D0009223909363008FBF0895E82FF0E0E45CD3
:1000E000FF4FE491A6E3B0E0883010F4A9E3B0E05C
:1000F0008C91E82381E090E011F490E080E0089595
:10010000CF93DF93E82FF0E0E45CFF4FE49128E326
:1001100030E0A7E3B0E0C2E6D0E0883030F42BE373
:1001200030E0AAE3B0E0C3E6D0E08E2F8095611105
:1001300010C04FB7F8949C9198239C93F90190813B
:10014000982390839881892388834FBFDF91CF9133
:1001500008952FB7F8949881892388838C91E82B90
:10016000EC932FBFF3CF98B19F7198B999B1907C60
:10017000892B89B92E9A2E99FECF86B197B1089511
:100180003FB7F8948091210190912201A091230121
:10019000B091240122B708B600FE05C02F3F19F028
:1001A0000196A11DB11D3FBFBA2FA92F982F8827F7
:1001B000BC01CD01620F711D811D911D44E0660FD0
:1001C000771F881F991F4A95D1F70895CF92DF9224
:1001D000EF92FF92CF93DF936B017C01D1DFEB01B4
:1001E000CFDF6C1B7D0B683E7340A0F0C114D104BF
:1001F000E104F10439F4DF91CF91FF90EF90DF90AB
:10020000CF90089581E0C81AD108E108F108C851DB
:10021000DC4FE6CFC114D104E104F10409F7EBCFC0
:10022000CF93DF93DC011C96ED91FC9126A137A1C1
:100230002032310510F5A6A1B7A1C6A1D7A120E2B1
:1002400030E02A1B3B0B4217530708F49A01DB01ED
:10025000EC0FFD1FB9016E0F7F1FE617F70719F0AE
:100260004D914193FACFDC011C96ED91FC9186A152
:1002700097A1280F391F37A326A3DF91CF910895A7
:10028000DC011C96ED91FC9186A197A1809768F402
:1002900086A197A19C012F5F3F4F37A326A3E80FAC
:1002A000F91F608381E090E0089590E080E0089578
:1002B000682F8BE591E0E4CF0895DC011C96ED9169
:1002C000FC9120A131A182A193A12817390738F40C
:1002D00080A191A1E80FF91F808190E008958FEF30
:1002E0009FEF0895DC011C96ED91FC9120A131A1B6
:1002F00082A193A12817390760F480A191A19C01E4
:100300002F5F3F4F31A320A3E80FF91F808190E0BA
:1003100008958FEF9FEF0895DC011C96ED91FC91FD
:1003200082A193A120A131A1821B930B0895823059
:1003300011F180F4882339F1813009F1CEDE892B67
:10034000C9F481E0A8DE65E070E080E090E03EDF87
:1003500080E0A1CE883031F0893081F7909125017D
:10036000907103C0909125019170992339F3B5DE06
:10037000019739F30895909125019270F6CF9091ED
:1003800025019470F2CF909125019870EECFB7C4FB
:10039000CF93DF93D0E0C0E08BE591E0BDDF892B08
:1003A00049F08BE591E09EDFFE01E85EFE4F808321
:1003B0002196F2CF80911801833049F460911901A0
:1003C00081E090E0E4DF1092180110921901809111
:1003D00018018930D9F48091190190911A01892767
:1003E0009827892790930301809302016091190156
:1003F00084E090E0CCDF60911A0185E090E0C7DFF7
:10040000109218011092190110921A01809118018E
:100410008830D9F48091190190911A018927982781
:10042000892790930101809300016091190182E076
:1004300090E0ADDF60911A0183E090E0A8DF1092B8
:1004400018011092190110921A01809118018A3036
:10045000D9F48091190190911A0189279827892749
:1004600090930701809306016091190186E090E066
:100470008EDF60911A0187E090E089DF1092180109
:100480001092190110921A01809118018B30D9F441
:100490008091190190911A018927982789279093B3
:1004A0000501809304016091190188E090E06FDFFD
:1004B00060911A0189E090E06ADF109218011092B1
:1004C000190110921A0180911801853069F4809108
:1004D000190180932501609119018AE090E057DFAE
:1004E0001092180110921901DF91CF910895FFC366
:1004F000CF93DF938091180162E0843009F489C0C2
:1005000080911801813089F480912601D1DE80919B
:100510002701CEDE109226011092270110921801B9
:1005200010921901DF91CF910895809118018230C6
:1005300049F481E090E0DBDF61E28F3F09F469C0BC
:10054000B7DEECCF809118018630C1F483E00BDE7A
:10055000C0E0D4E0C81BD90B809102019091030147
:10056000C817D90738F480910001909101018C17C8
:100570009D07A0F28D2F9CDE8C2FE2CF8091180179
:10058000873089F4F0DDC0E0D4E0C81BD90B80913E
:10059000060190910701C817D90760F780910401FF
:1005A00090910501E4CF809118018C3051F4809135
:1005B000000190910101C0910001D0910101892FAA
:1005C000DACF809118018D3049F480910201909129
:1005D0000301C0910201D0910301F1CF8091180174
:1005E0008E3049F48091060190910701C091060177
:1005F000D0910701E4CF8091180160E08F3049F479
:100600008091040190910501C0910401D0910501F0
:10061000D6CF8BE591E034DE81CF1F920F920FB6DB
:100620000F9211242F933F938F939F93AF93BF9378
:1006300080911D0190911E01A0911F01B091200198
:1006400030911C012CE0230F2D3768F12FE8230F88
:100650000596A11DB11D20931C0180931D0190934F
:100660001E01A0931F01B093200180912101909160
:100670002201A0912301B09124010196A11DB11D79
:100680008093210190932201A0932301B093240130
:10069000BF91AF919F918F913F912F910F900FBE7E
:1006A0000F901F9018950496A11DB11DD4CF1F92D5
:1006B0000F920FB60F9211242F933F934F935F9396
:1006C0006F937F938F939F93AF93BF93CF93EF934A
:1006D000FF93C091A3008C2F8C7019F18FEF809342
:1006E000500180915101909152019F779093520156
:1006F000809351018091A300846C8093A300FF91AB
:10070000EF91CF91BF91AF919F918F917F916F9119
:100710005F914F913F912F910F900FBE0F901F90BF
:100720001895C6FD28C0809151019091520197FD06
:1007300022C0C7FF6FC0C1FFAFC020914C013091F4
:100740004D0180914E0190914F012817390708F013
:10075000A1C080914C0190914D019C012F5F3F4FB2
:1007600030934D0120934C01885D9E4FFC018081A8
:100770008093A0004FC0C0FF66C08091510190914E
:10078000520197FF29C0809151019091520120910F
:10079000A0009695982F882797958795882793701E
:1007A000822B9093520180935101E0915301F0917B
:1007B0005401309789F110924901109248016091DB
:1007C000500180915101909152010995811124C0ED
:1007D00087E08093A40093CF8091A00090E0909355
:1007E000520180935101809150018F5F809350019D
:1007F0008091510190915201897F9927803F910505
:10080000A1F680915101909152019068909352010C
:100810008093510183E0DDCFC1FF10C010924F01E2
:1008200010924E01E0915701F0915801309709F074
:10083000099510924D0110924C01ECCF10924B0192
:1008400010924A01E7CFC1FF15C0E0915901F09124
:100850005A01309709F009958FEF809350018091EC
:100860005101909152019F779093520180935101D1
:1008700080E443CFE0915501F0915601309761F348
:10088000109249011092480180914A0190914B01C8
:100890000995E2CF82E09DCF80914A0190914B0172
:1008A000809790F480914A0190914B019C012F5FB9
:1008B0003F4F30934B0120934A012091A000885D67
:1008C0009E4FFC012083A6CF86E083CFEBE5F1E0CD
:1008D0001382128288EE93E0A0E0B0E084839583D7
:1008E000A683B7838CE091E09183808388E291E0D6
:1008F0009587848710926901089588ED809371002F
:10090000C1E0C0937300789480B7836080BF83B7E1
:10091000877F83BF83B7887F836083BF89B7816008
:1009200089BF8091C900887F8093C9008091CA00E7
:100930008C7F81608093CA008091C900877E8093FC
:10094000C9008091C900887F83608093C9008EB5FB
:10095000887F8EBD8FB58C7F81608FBD8EB5877E81
:100960008EBD8EB5887F83608EBD80E180936700E9
:1009700084EA809368008CEF8093660085B1887F5D
:10098000856085B92F9A60E081E0BADB60E080E0A5
:10099000B7DB60E083E0B4DB60E087E0B1DB60E020
:1009A00082E0AEDB60E089E0ABDB60E088E0A8DB02
:1009B00061E085E0A5DB80E06EDB81E090E097DD23
:1009C00000916701109168018F3F09F089C192E49D
:1009D0009093A2001092A100F80180A78CEB809365
:1009E000A500C09369018AE090E081DD8093250134
:1009F000809125018F3F11F41092250182E090E053
:100A000076DDC82F83E090E072DD9C2F909301018A
:100A1000809300018091000190910101019631F4D1
:100A200088EC90E0909301018093000184E090E0D5
:100A30005EDDC82F85E090E05ADD9C2F9093030186
:100A4000809302018091020190910301019631F49B
:100A500084E893E0909303018093020186E090E0A4
:100A600046DDC82F87E090E042DD9C2F9093070180
:100A7000809306018091060190910701019631F45F
:100A800084E893E0909307018093060188E090E06A
:100A90002EDDC82F89E090E02ADD9C2F9093050180
:100AA000809304018091040190910501019631F435
:100AB00088EC90E0909305018093040188EC91E02C
:100AC000F80196A785A788E792E090AB87A7E12C6D
:100AD00084E0F82E87E047DB8C0183E044DBE7010C
:100AE000C81BD90BC701801B910B8C01809106019B
:100AF000909107018017910710F585E0EEDA892BB8
:100B0000F1F48091270182608093270165E070E015
:100B100080E090E05BDB80910601909107018017F7
:100B2000910768F485E0D9DA892B49F481E0B3DADA
:100B300065E070E080E090E049DB80E0ACDA809135
:100B40000401909105010817190710F585E0C5DA31
:100B5000892BF1F48091270181608093270165E062
:100B600070E080E090E032DB80910401909105011B
:100B70000817190768F485E0B0DA892B49F481E099
:100B80008ADA65E070E080E090E020DB80E083DAE4
:100B900080910201909103018C179D0710F585E06B
:100BA0009CDA892BF1F480912701846080932701DE
:100BB00065E070E080E090E009DB809102019091B7
:100BC00003018C179D0768F485E087DA892B49F4C7
:100BD00081E061DA65E070E080E090E0F7DA80E0E3
:100BE0005ADA8091000190910101C817D90710F5D8
:100BF00085E073DA892BF1F4809127018860809376
:100C0000270165E070E080E090E0E0DA809100018B
:100C100090910101C817D90768F485E05EDA892B45
:100C200049F481E038DA65E070E080E090E0CEDA07
:100C300080E031DA88E051DA892B61F48091260175
:100C400081608093260160E570E080E090E0BEDA8C
:100C500088E06DDB82E041DA892B61F48091260126
:100C600082608093260160E570E080E090E0AEDA7B
:100C700082E05DDB81E031DA892B61F4809126012D
:100C800084608093260160E570E080E090E09EDA69
:100C900081E04DDB80E021DA892B61F4809126012F
:100CA00088608093260160E570E080E090E08EDA55
:100CB00080E03DDB89E011DA892B61F48091260127
:100CC00080618093260160E570E080E090E07EDA4C
:100CD00089E02DDB65E070E080E090E077DAFACE25
:100CE000880F8093A2001092A1008FEF75CEE1993A
:100CF000FECF1FBA8EBBE09A99278DB30895262F99
:100D0000E199FECF1CBA1FBA8EBB2DBB0FB6F8946B
:100D1000E29AE19A0FBE01960895EE0FFF1F05902B
:0A0D2000F491E02D0994F894FFCF40
:100D2A00C8008403C80084030000000040011001C9
:080D3A008C0172015D015C01F6
:00000001FF
