:020000022000DC
:106000000000042019E9050059E905005BE90500D5
:106010005DE905005FE9050061E905000000000099
:1060200000000000000000000000000095E80500EE
:1060300065E9050000000000B5E8050069E9050014
:10604000EDEE05006BE9050031BB050085D50200CA
:106050003DD602006BE9050061BF05006BE9050054
:106060006BE905006BE905006BE905006BE90500CC
:106070006BE905006BE905006BE905006BE90500BC
:106080006BE90500E5E505006BE905006BE9050036
:106090006BE905006BE905006BE905006BE905009C
:1060A0006BE905006BE905006BE905006BE905008C
:1060B0006BE9050005080500000000000000000075
:1060C0006BE905006BE905006BE9050001F40500CB
:1060D0006BE905005DED05006BE905006D2A040024
:1060E0007DBB05006BE905006BE9050000000000C1
:1060F000000000006BE905000000000079F40500D5
:10610000000000000000000000000000000000008F
:10611000000000000000000000000000000000007F
:10612000000000000000000000000000000000006F
:10613000000000000000000000000000000000005F
:10614000000000000000000000000000000000004F
:10615000000000000000000000000000000000003F
:10616000000000000000000000000000000000002F
:10617000000000000000000000000000000000001F
:10618000000000000000000000000000000000000F
:1061900000000000000000000000000000000000FF
:1061A00000000000000000000000000000000000EF
:1061B00000000000000000000000000000000000DF
:1061C00000000000000000000000000000000000CF
:1061D00000000000000000000000000000000000BF
:1061E00000000000000000000000000000000000AF
:1061F000000000000000000000000000000000009F
:10620000F1EE103A43F08073E1EE103A704700BFB0
:1062100010B5054C237833B9044B13B10448AFF3E0
:1062200000800123237010BDF476002000000000E0
:1062300034AD060008B5034B1BB103490348AFF367
:10624000008008BD00000000F876002034AD060094
:10625000154B002B08BF134B9D46A3F5803A002138
:106260008B460F461348144A121A3AF041FF0F4B5F
:10627000002B00D098470E4B002B00D098470020F1
:10628000002104000D000D48002802D00C48AFF397
:1062900000803AF0BBFE2000290038F095FB3AF070
:1062A0008FFE00BF00000800000004200000000076
:1062B00000000000F476002044E20020000000000E
:1062C0000000000000207047024A13780133DBB25F
:1062D000137070475C7B0020704700BF024A137840
:1062E0000133DBB2137070475D7B0020704700BF45
:1062F000024A137801331370704700BF9C7B002063
:10630000704700BF704700BF014B01221A707047F1
:1063100040770020014B01221A707047DC91002069
:10632000014B01221A7070472C7B0020014B012287
:106330001A70704768780020704700BF024B012137
:106340002320197039F07ABE3C7B002008B501216A
:10635000112039F0EFFD0121222039F0EBFD012160
:10636000152039F0E7FD0121092039F0E3FD012175
:10637000112039F063FE0121222039F05FFE012156
:10638000152039F05BFEBDE808400121092039F0F5
:1063900055BE00BF08B5042039F06EFE034B01283E
:1063A0000CBF012202221A7008BD00BFA477002092
:1063B00008B501210D2039F0BDFD01210D2039F076
:1063C0003DFE0E20032139F0B5FD0E2039F054FEBC
:1063D000002800F0C78001210F2039F0ABFD01211A
:1063E0000F2039F02BFE1020032139F0A3FD1020DF
:1063F00039F042FE002800F0F2800121112039F02E
:1064000099FD0121112039F019FE1320032139F0E3
:1064100091FD132039F030FE002800F0DB800121CF
:10642000152039F087FD0121152039F007FE1420D1
:10643000032139F07FFD142039F01EFE002800F002
:10644000C4800121092039F075FD0121092039F0AE
:10645000F5FD0A20032139F06DFD0A2039F00CFE0C
:10646000002800F0AD800121192039F063FD0121E1
:10647000192039F0E3FD1820032139F05BFD1820C5
:1064800039F0FAFD002800F0968001211A2039F039
:1064900051FD01211A2039F0D1FD1E20032139F0D0
:1064A00049FD1E2039F0E8FD00287FD001211D2084
:1064B00039F040FD01211D2039F0C0FD1C200321D1
:1064C00039F038FD1C2039F0D7FD002869D00121B2
:1064D000032039F02FFD0121032039F0AFFD022008
:1064E000032139F027FD022039F0C6FD002853D0E2
:1064F0000121242039F01EFD0121242039F09EFDC8
:106500002320032139F016FD232039F0B5FD0028A2
:106510003DD00121222039F00DFD0121222039F04A
:106520008DFD2120032139F005FD212039F0A4FD46
:1065300040B30121042039F0FDFC0121042039F091
:106540007DFD0520032139F0F5FC052039F094FD8F
:1065500098B11F20032139F0EDFC1F2039F08CFD8C
:1065600028B108BD2049214834F032FE33E7BDE8A8
:1065700008401F491D4834F02BBE1E491B4834F00B
:1065800027FEE6E71C49194834F022FED1E71B49F3
:10659000164834F01DFEBCE71949144834F018FEC3
:1065A000A6E71849114834F013FE90E716490F4842
:1065B00034F00EFE7AE715490C4834F009FE64E722
:1065C00013490A4834F004FE4DE71249074834F0F5
:1065D000FFFD36E71049054834F0FAFD1FE70F4983
:1065E000024834F0F5FD08E7E05606003CA800201C
:1065F000505906001C590600E8580600B458060019
:10660000805806004C58060018580600E45706004B
:10661000B05706007C57060048570600145706007E
:1066200010B501210C4C222039F084FC01212220DC
:1066300039F004FD0949204634F0CAFD41F28830A2
:1066400035F052FF0649204634F0C2FDBDE8104047
:106650000021222039F0F2BC3CA800208459060019
:106660009C5906002DE9F843002107460A2039F01D
:1066700061FC642035F038FF35F02AFF164DDFF855
:106680006490DFF86480064635F022FF03469B1BCA
:10669000BB42124C4FF00A001BD239F0EDFCB0FAAD
:1066A00080F25209494640462A6034F091FD2B6839
:1066B00022689A4203D0012B05D02360E4E76420CE
:1066C00035F012FFE0E70649404634F0E1FC2B6864
:1066D000F3E7BDE8F88300BF547B0020587B00201F
:1066E000D8590600B05906003CA8002010B5012179
:1066F000222039F01FFC0121222039F09FFC0121CA
:10670000042039F017FC114C0021042039F096FCCC
:106710004FF4967035F0E8FE0D49204634F0B8FC91
:106720000021042039F08AFC40F6B83035F0DCFE58
:106730000849204634F0ACFC0420012139F07EFCED
:10674000BDE8104040F6B83035F0CEBE3CA8002081
:10675000E8590600F459060038B500212DED028BEA
:10676000092039F0E7FB01210A2039F0E3FB012180
:106770000A2039F063FC642035F0B6FE2C4A2D481F
:10678000512108F065FB002846D02A489FED2A8A4F
:106790000546202108F090FB0021284608F0B8FBB0
:1067A0000021284608F008FC0121284608F058FC82
:1067B0000121284608F0A8FC0121284608F0F8FC31
:1067C00040F6FF71284608F011FDB1EE040A284694
:1067D00008F064FD0524284608F026FD0A2038EE5E
:1067E000008A35F081FE631E13F0FF04F3D1DFED64
:1067F000137A68EE277A17EE900A39F03BFE0B46C3
:1068000002460F490F4834F0E3FCBDEC028B084808
:10681000BDE8384006F0A6BD0B490A4834F038FC04
:10682000BDEC028B0248BDE8384006F09BBD00BFBE
:10683000649600205C77002000000000CDCC4C3E28
:10684000005A06003CA80020205A06002DE9F0431B
:10685000294883B006F00CFD2749284811F00EFEA8
:1068600026486946032211F00BFE30B12449254821
:1068700034F0AEFC03B0BDE8F08322482249DFF8D3
:106880009880224F054634F0EBFA2149284634F02F
:10689000E7FA6C460DF1060934F8026BB6F5805F35
:1068A000394628461FD234F0DBFAFF2E1ED839466F
:1068B000284634F0D5FA0F2E8CBF4146394628467B
:1068C00034F0CEFA31461022284634F0B1FD4C4562
:1068D000E2D10C4834F076FB0E490A4834F078FCDB
:1068E00003B0BDE8F083414634F0BAFA4146284689
:1068F00034F0B6FA4146E2E764960020F4950020B1
:10690000585A06003CA80020705A0600545A060047
:10691000FC810600805A0600B076060010B584B0EF
:10692000684619F02BFC0121222039F003FB0121DC
:10693000222039F083FB0121042039F0FBFA0121E8
:10694000042039F07BFB0A2035F0CEFD0021042025
:1069500039F074FB0A2035F0C7FD0121042039F01D
:106960006DFB0A2035F0C0FD1A4A6846202119F057
:1069700027FC00240222E1B26846144419F036FCD8
:10698000102CF7D10124E1B201226846023419F03B
:106990002DFC112CF7D10124E1B20022684602340B
:1069A00019F080FC112CF7D1684619F0EDFB0A496B
:1069B00004460246094834F00BFC2CB90849074844
:1069C00034F006FC04B010BD0649044834F000FC65
:1069D00004B010BD64960020945A06003CA8002024
:1069E000A85A0600BC5A0600F0B52DED048B91B0F4
:1069F000064601A819F09AFC0121222039F09AFAE2
:106A00000121222039F01AFB002340222C4901A841
:106A100019F096FC01A80A2119F02EFD0A2101A8FF
:106A200019F038FD01A819F0D1FD01A84FF4FA7151
:106A300019F0BEFE9FED208B0124214602349FED0C
:106A40001E0BB0EE481AF0EE681A01A8A4B219F0B5
:106A500027FD112CF1D135F03BFD074635F038FD0F
:106A6000C01BB0429FED149B22D20025284639F06E
:106A7000DFFC41EC180B00242146023401A8A4B22B
:106A8000B0EE491AF0EE691AB0EE480AF0EE680A64
:106A900019F006FD102CEFD102351420EDB235F0BF
:106AA00023FD642DE2D135F013FDC01BB042DCD3D1
:106AB00011B0BDEC048BF0BD000000000000000030
:106AC000649600202DE9F04F364A374B11881B7829
:106AD000364E89B001220546002734488DF818301B
:106AE000ADF8197019F010FF3149324834F0D0FA7E
:106AF0003149304834F0CCFA30492E4834F0C8FAE5
:106B00002B492C4834F0C4FA35F0E2FCAA46019730
:106B10004FF0000B04463D4606E0032207A930462D
:106B20001AF086F801280DD035F0D2FC0023B0EB26
:106B3000040863EB0509D04579EB0B03EDDB09B0E5
:106B4000BDE8F08FBDF804201D491A4834F040FB21
:106B50001C49184834F09CFA06AA07ABCDE902ABF1
:106B6000CDE90489A346002791461C4614F8013B51
:106B700009F8013B3A4614490E48013734F028FB26
:106B8000032FF3D132205C46DDE902AB35F0ACFCDB
:106B90003B46019F01210F4406AA3046019719F098
:106BA0004FFFC1E7346000200C8006004C7C0020C1
:106BB000D45A06003CA80020F45A0600005B0600E8
:106BC000185B06003C5B0600585B0600F0B501212F
:106BD0008DB00746222039F0ADF90121222039F08D
:106BE0002DFA4FF4967035F07FFC57481BF01EFAD3
:106BF000564A4FF47A73062104A81BF0DDF80623E9
:106C0000534A51488DF8233004A91AF037FE002862
:106C100040F08E804F49504834F022F90A22BDF8E6
:106C200018104D4834F068FB4C494B4834F018F9C3
:106C30000A22BDF81A10484834F05EFB484946481D
:106C400034F00EF90A229DF81C10434834F0C0FBC2
:106C50004449414834F004F90A229DF81D103E4889
:106C600034F0B6FB40493C4834F0FAF804A81BF075
:106C700065F90A220146384834F064FB3B4936483E
:106C800034F006FA3A49344834F0EAF804A81BF024
:106C900061F9384B384A0146002914BF114619469C
:106CA0002D4834F0F5F935492B4834F0D9F804A8CB
:106CB0001BF062F90A220146274834F043FB3049B1
:106CC000254834F0E5F9244834F07CF9642035F0A7
:106CD0000BFC35F0FDFB1C4D0646002435F0F8FB9F
:106CE00003469B1BBB4228461CD2CDE90044CDE99C
:106CF00002441AF0ADFF694628461AF06BFE0028E0
:106D0000ECD09DF80530002BE8D19DF80430002B25
:106D1000E4D1009B052BE1D11A490F4834F058FA11
:106D20000DB0F0BD18490C4834F052FA0DB0F0BD6A
:106D300004461649084834F093F8214610220648C4
:106D400034F014FBC2E700BFF0A7002048E80100C0
:106D5000916D0200785B06003CA80020905B060065
:106D6000A45B0600B85B0600C05B0600D45B0600AF
:106D7000DC5B0600745B0600705B0600F05B0600DF
:106D8000005C06001C5C0600305C0600045C06002B
:106D900001481AF05DBE00BFF0A70020F0B5344BEB
:106DA00093E8030087B00B0C04903248ADF8141040
:106DB0008DF8163020F0C8FA2E4820F0F5FA002899
:106DC00050D0FF212B4820F085FB2A4820F03EFBC5
:106DD00029492A4834F05CF900250A2035F084FB63
:106DE0002448009529460DF10F0304AA20F082FBE8
:106DF000002833D02249214834F04AF921491F485C
:106E000034F02EF80A229DF80F101C4834F0A6FA30
:106E10001D491A4834F03CF91C49184834F020F850
:106E20009DF80F30A3B11A4F144E2C463946304608
:106E300034F016F806AB1C44102214F8081C304637
:106E400034F08CFA01359DF80F30ECB2A342EDD846
:106E500010490A4834F01CF907B0F0BD0E49074844
:106E600034F016F90D49054834F012F907B0F0BDB9
:106E70001080060070910020605C06003CA8002095
:106E8000805C0600945C0600A45C0600AC5C060016
:106E900080920600B0760600B85C0600485C0600EA
:106EA00010B5B8B004224FF0FF3306921A24112116
:106EB0000322CDE90021CDE904336822CDE9023473
:106EC00008A81E23D42125F035FE08A8002125F0AE
:106ED00087FE08A825F018F908A8002108F0CEFBC5
:106EE000012108A825F07AF84FF4FA6035F0FCFA91
:106EF00008A825F009F908A8012108F0BFFB08A897
:106F0000012125F06BF8034B089308A824F0E4FD59
:106F100038B010BD8CA0060010B5B8B004224FF0F8
:106F2000FF3306921A2411210322CDE90021CDE975
:106F300004337A22CDE9023408A81E23FA2125F071
:106F4000F9FD08A8002125F04BFE08A825F0DCF883
:106F500008A8002108F092FB012108A825F03EF8BE
:106F60004FF4FA6035F0C0FA08A825F0CDF808A86B
:106F7000012108F083FB012108A825F02FF84FF428
:106F8000FA6035F0B1FA08A825F0BEF808A8022189
:106F900008F074FB012108A825F020F84FF4FA60EE
:106FA00035F0A2FA034B089308A824F095FD38B0F9
:106FB00010BD00BF8CA006002DE9F04F85B0282140
:106FC000064602A825F010FF524806F051F9514933
:106FD00002A8282225F02CFF002800F08880814696
:106FE0004D484E49DFF850B1824634F0F1F84C4933
:106FF000504634F04DF835F06BFA074635F068FA34
:10700000C01B4FF00008B042444645461CD202A8BF
:1070100025F0DAFF08B1002D39D002A826F000F8DB
:10702000E8B12CB302A826F027F8002849D11DB1F9
:10703000B8F1000F3ED14C46C82035F055FA35F076
:1070400047FAC01BB042E2D33649334834F0C0F8A7
:107050003549314834F0BCF805B0BDE8F08F02A8DE
:1070600026F00AF8D8B9002DE6D0002CE4D0DFE7EE
:107070002E490190504634F00BF802A825F0FCFF91
:10708000019B044690B9002DD2D11C46D4E7019053
:107090005946504633F0FCFF019B1D46BDE7B8F151
:1070A000000F1CD005B12CB9C846C5E7B8F1000FD8
:1070B00027D0CDB11E49184833F0EAFF05B0BDE82E
:1070C000F08FB8F1000FF4D101901A49504633F017
:1070D000DFFF019B002DEDD11C46C846ACE71549EA
:1070E000504633F0D5FFDDE74446C846A4E70E49D5
:1070F000094834F06DF8642035F0F6F905B0BDE8C4
:10710000F08F0C49504633F0C3FF002DD2D1C84652
:1071100092E700BF649600203CA80020F05C0600C7
:10712000085D0600705D0600D85C06004C5D060038
:107130005C5D0600545D0600445D06002DE9F84FD5
:107140000121222038F0F6FE01212220DFF82491CF
:1071500038F074FF0121152038F0ECFE01211520D4
:1071600038F06CFF00234FF4A0724846F02126F05F
:10717000F7F84846032126F093F84FF47841484643
:1071800008F07CFA4FF4FA6035F0AEF94FF4FC6188
:10719000484608F073FA4FF4FA6035F0A5F91F215C
:1071A000484608F06BFA4FF4FA6035F09DF9382242
:1071B00029492A4826F058FA02210A2038F0BAFE56
:1071C0004846012108F010FE254B2649C9F8103029
:1071D0004FF0FF3201234846C9F8142089F81B30CC
:1071E00033F03EFE1F49204833F052FF642035F053
:1071F0007BF91E4BC9F8103035F06AF94FF0000AE0
:10720000804641F28736002702E038F035FFE8B1CA
:1072100035F05EF90023B0EB080463EB0A05A642E3
:1072200077EB05034FF00A00EFDA104B10491148D5
:10723000C9F8103033F014FE0F490B4833F0C8FF83
:10724000BDE8F84F0021152038F0F8BE0B49094879
:1072500033F006FE0A49F0E764960020009600200D
:1072600014003200845D06003CA800201400640075
:10727000C85D060014960020E05D0600A05D0600D3
:10728000B45D060010B582B0684626F011FA0121FF
:10729000222038F04FFE0121222038F0CFFE4FF49B
:1072A000967035F021F9174A6846502126F004FA05
:1072B000E0B11549002034F095FE84B221465522F4
:1072C000684626F00FFA2146684626F035FA55281A
:1072D00001D002B010BDFF222146684626F002FA16
:1072E0002146684626F028FAFF2805D007490848B5
:1072F00033F06EFF02B010BD0649054833F068FF59
:10730000E7E700BF64960020FFFF03000C5E060065
:107310003CA80020F85D060070B5012182B01A205B
:1073200038F008FE01211A2038F088FE1948064678
:107330000AF036FD00211A2038F080FE9F213046E9
:107340000AF0C4FE01AC0DF10705002130460AF039
:10735000BDFE04F8010B0A2035F0C6F8AC42F4D1AA
:1073600001211A2038F06AFE9DF80430C82B03D1A1
:107370009DF80530402B06D00749084802B0BDE80B
:10738000704033F025BF9DF80630152BF4D1044929
:10739000F3E700BF489B0020385E06003CA80020B1
:1073A000245E060010B5554C4821204629F02EF8E1
:1073B0002046002129F034F80421204629F032F833
:1073C000204629F027F82046E17829F02DF82046BC
:1073D00029F030F8002840F082804949494833F0CC
:1073E000F7FE4949474833F053FE2046012129F072
:1073F00027F810EE100A39F03DF802460B464148D6
:10740000424933F0E5FE20460A2129F019F810EE32
:10741000100A39F02FF802460B463A483C4933F03F
:10742000D7FE2046172129F00BF810EE100A39F08C
:1074300021F802460B463348364933F0C9FE204650
:10744000202128F0FDFF10EE100A39F013F8024653
:107450000B462C48304933F0BBFE20462D2128F046
:10746000EFFF10EE100A39F005F802460B462548EA
:107470002A4933F0ADFE2046362128F0E1FF10EE18
:10748000100A38F0F7FF02460B461E48244933F035
:107490009FFE2046432128F0D3FF10EE100A38F05B
:1074A000E9FF02460B4617481E4933F091FE20467D
:1074B0004C2128F0C5FF10EE100A38F0DBFF024621
:1074C0000B461048184933F083FE0D490D4833F040
:1074D0007FFEBDE810404FF4FA7035F005B813494F
:1074E000084833F0D5FD1249064833F071FEBDE877
:1074F00010404FF4FA7034F0F7BF00BF207800203E
:10750000505E06003CA800207C5E06009C5E0600E3
:10751000DC5E06001C5F06005C5F06009C5F0600E8
:10752000DC5F06001C6006005C6006009C600600D4
:10753000B4600600F0B5ADF60C0D064634F0C8FF99
:1075400001210546222038F0F5FC0121222038F0E7
:1075500075FD4FF4FA7034F0C7FF314805F088FE2E
:1075600068461D2129F072FC684629F07BFC002842
:1075700043D06846022303224FF47A5129F068FD74
:10758000284810234FF47A520021074629F040FB87
:10759000384629F065FB642034F0A6FF02A84FF4BA
:1075A0000062002139F0A4FD0DF6080402E00A2073
:1075B00034F09AFF34F08CFF431BB3422CD24FF4CB
:1075C000006202A9384629F06FFB0028EFD002AB19
:1075D00001E09C42EBD053F8042B002AF9D011486B
:1075E00029F060FB0021222038F028FD0E490F48C9
:1075F00033F0EEFD0DF60C0DF0BD0D490B4833F0E8
:10760000E7FD0021222038F019FD0A49074833F030
:10761000DFFD0DF60C0DF0BD024829F043FBF0E74D
:107620006496002038BD0020186106003CA80020A8
:10763000E46006000061060010B50121222038F048
:1076400079FC0121222038F0F9FC0121112038F0C9
:1076500071FC0121112038F0F1FC0321042038F0E5
:1076600069FC002038F0B4FB642034F03DFF80203A
:1076700038F0DEFBC82034F037FF042038F02CFC53
:1076800038F0E6FE1CA3D3E9002338F04BFF39F0B5
:1076900041FADFED137A07EE100A67EE277A17EE4C
:1076A000900A38F0E7FE0F4B002238F085FD39F0E4
:1076B000E9F90D49044602460C4833F089FD042CD3
:1076C00005D0BDE810400A49084833F081BDBDE847
:1076D00010400849054833F07BBD00BFAFF3008080
:1076E000DEC3D6400000E03F2C6106003CA800202D
:1076F0008C6106005C610600CDCCCCCCCCCC6C3F60
:1077000010B50121222038F015FC0121222038F08B
:1077100095FC0121112038F00DFC0121112038F0D9
:107720008DFC03211F2038F005FC002038F050FBB1
:10773000642034F0D9FE802038F07AFBC82034F081
:10774000D3FE1F2038F0C8FB19490446194833F00E
:107750003FFD204638F07CFE13A3D3E9002338F028
:10776000E1FE39F0D7F9DFED147A07EE100A67EE83
:10777000277A17EE900A38F07DFE104B002238F081
:107780001BFD39F07FF9042805D0BDE810400C49F5
:10779000084833F01DBDBDE810400A49054833F0E4
:1077A00017BD00BFAFF30080CDCCCCCCCCCC6C3FB0
:1077B000C06106003CA80020DEC3D6400000E03FC8
:1077C00020620600F061060038B50121222038F061
:1077D000B1FB0121222038F031FC0121112038F0C9
:1077E000A9FB0121112038F029FC0321042038F0E5
:1077F000A1FB03211F2038F09DFB022038F0E8FA9E
:10780000802038F015FBC82034F06EFE042038F0DC
:1078100063FB002204464249424833F0D9FC20462B
:1078200038F016FE404B002238F07CFE39F072F939
:1078300038F020FE34A3D3E9002338F073FE39F08A
:1078400069F938F017FE04460D4622463749354897
:107850002B4633F0BDFC2EA3D3E900232046294656
:1078600039F0E6F840B12CA3D3E90023204629469D
:1078700039F0D4F8002840D12D492A4833F0A8FC2B
:10788000C82034F031FE1F2038F026FB38F0E0FD30
:10789000254B002238F046FE39F03CF938F0EAFD7D
:1078A00019A3D3E9002338F03DFE39F033F938F05D
:1078B000E1FD04460D4622461E491A482B4633F088
:1078C00087FC13A3D3E900232046294639F0B0F8FA
:1078D00038B111A3D3E900232046294639F09EF898
:1078E00028B9BDE8384014490E4833F071BCBDE8F2
:1078F000384012490B4833F06BBC1149094833F04A
:1079000067FCBDE7AFF30080ABAAAAAAAAAAFA3F18
:107910009A999999999909403333333333330B400A
:10792000546206003CA800200000683F7462060014
:10793000D062060004630600606306003063060040
:10794000A062060010B5034B036004461FF0BAF8AE
:10795000204610BDF07F060038B501210546042001
:1079600038F0E8FA0121042038F068FB03211520E3
:1079700038F0E0FA0121242038F0DCFA002124203C
:1079800038F05CFB34F0A4FD044603E038F074FBEF
:1079900001280DD034F09CFD03461B1BAB424FF079
:1079A0001500F3D3BDE838400649074833F010BC52
:1079B0000146242038F042FBBDE838400349024824
:1079C00033F006BCA86306003CA8002094630600C0
:1079D0002DE9F8430321112038F0ACFA34F078FD9A
:1079E0004FF00009804641F28736002706E038F064
:1079F00043FB03460A20A3B134F076FD34F068FD62
:107A00000023B0EB080463EB0905A64277EB0503FE
:107A10004FF01100EBDABDE8F8430549054833F0B3
:107A2000D7BBBDE8F8430449024833F0D1BB00BFDF
:107A3000D46306003CA80020C063060030B583B0C4
:107A4000044634F045FD054634F042FD401BA0429B
:107A500001D303B030BD1A4805F00AFC184A194892
:107A60000DF107033A2106F085FF10B315480DF11B
:107A7000070106F079FC9DF80730D3B9114806F0EC
:107A800069FC10EE104A1049104833F0E9F920461D
:107A900038F0F0FC41EC100B02210C4833F012FAE4
:107AA0000B490A4833F094FB0A49084833F090FB2D
:107AB000CFE70949054833F08BFB03B030BD00BF69
:107AC00064960020BC770020EC6306003CA80020F0
:107AD00004640600086406001C64060070B50021FA
:107AE0002DED028B092038F025FA01210A2038F00B
:107AF00021FA01210A2038F0A1FA642034F0F4FCC4
:107B0000294A2A48552107F0A3F9002843D02748DD
:107B10009FED278A0546202107F0CEF9002128464F
:107B200007F0F6F90021284607F046FA0121284619
:107B300007F096FA0121284607F0E6FA01212846C7
:107B400007F036FB40F6FF71284607F04FFBB1EE19
:107B5000040A284607F0A2FB0524284607F064FB28
:107B60000A2038EE008A34F0BFFC631E13F0FF04D5
:107B7000F3D1DFED107A68EE277A17EE900A38F02D
:107B800079FCBDEC028B02460B46BDE870400A4909
:107B90000A4833F01DBBBDEC028B09490748BDE81C
:107BA000704033F075BA00BF649600207C770020E7
:107BB00000000000CDCC4C3E346406003CA8002000
:107BC000205A060008B50221042038F0B3F90C4908
:107BD0000222042034F066F80A4B1B78012B02D0F5
:107BE000022B06D008BDBDE808400749074833F01E
:107BF000EFBABDE808400649044833F0E9BA00BFCF
:107C000095630200A4770020546406003CA800207D
:107C10006C64060038B500210546112038F08AF959
:107C200010490322112034F03DF8642034F05CFC4C
:107C300034F04EFC044602E038F01EFA60B134F035
:107C400047FC031BAB424FF01100F5D3BDE83840B1
:107C50000549064833F01CBABDE8384004490348DA
:107C600033F016BAF1620200946406003CA80020CA
:107C7000806406002DE9F0414449054644480AF075
:107C8000CBFC002853D0022141480AF02FFD0C21E3
:107C90003F480AF0FDFC3F493F4833F08FF83C482D
:107CA0000AF07AFD032807D8DFE800F04C510247BC
:107CB0003A49394833F0ECF93949374833F07EF81E
:107CC00033480AF041FD0C280CD8DFE800F0454F9E
:107CD00054070B0B0B0B590B0B0B4A0031492E4869
:107CE00033F0D6F934F0F4FBDFF8E0802A4C284F6B
:107CF000064612E034F0F8FB4146204633F0B0F877
:107D000038460AF021FE10EE100A38F0B3FB41ECC1
:107D1000100B0221204633F00BFA34F0D9FB034656
:107D20009B1B9D424FF06400E4D8BDE8F081BDE8A4
:107D3000F0411D49184833F0ABB91C49164833F0DF
:107D4000A7F9B9E71A49144833F0A2F9B4E7194979
:107D5000114833F09DF9AFE717490F4833F098F910
:107D6000C0E716490C4833F093F9BBE714490A48B9
:107D700033F08EF9B6E71349074833F089F9B1E7D4
:107D80001149054833F084F9ACE700BF6496002040
:107D900000780020AC6406003CA80020C064060007
:107DA000C4640600F0640600205A0600BC640600A5
:107DB000B4640600B8640600E4640600DC640600EF
:107DC000E8640600EC640600E0640600F464060063
:107DD0002DE9F04F2DED028B064687B05C4A5D49D8
:107DE0005D4857230BF00EFA002800F0A2805B4993
:107DF0005B48DFF86481DFF888B19FED5A8ADFF8CD
:107E00008491DFF884A133F043F94FF4C87140F254
:107E10009B124FF480538DE80E004046032304224A
:107E20001F210BF011FA4FF47A7034F05DFB34F03F
:107E30004FFB0025074634F04BFB0346DB1B9E42FD
:107E4000404620D90BF0C0F904460BF0E3FD0135A4
:107E500048BB4CF24F339C4209FB05F218DDBAEBEC
:107E6000720FE8D340493E4832F0FAFF3F4B3C489E
:107E700019680A2233F040FA34F02AFB0346DB1B70
:107E80009E424046DED807B0BDEC028BBDE8F08FC5
:107E90003749334832F0E4FF314833F093F8642037
:107EA00034F022FBC7E734F013FBDBF80030C31AD1
:107EB000059334F00DFB059BCBF80000184638F015
:107EC000C7FA0B46024620A1D1E9000138F054FC64
:107ED00038F020FE07EE900A264BF4EEC87AF1EE59
:107EE00010FAB3EE047A1860B3D5F4EEC77AF1EE67
:107EF00010FAAEDD204ADFF894C092F800E01B498A
:107F0000FCEEE77A0EF1010017EE903A0CF80E3015
:107F10009CF800E09CF8013073449CF802E09CF867
:107F200003C07344634400F003009B1010700B60A7
:107F30008FE712490A4807B0BDEC028BBDE8F04F4D
:107F400033F0A6B8AFF3008000000000004CED4015
:107F5000801A060064960020A0910020306506007B
:107F60003CA8002000007F4378650600707A00205E
:107F70006C650600747A0020DD910020FC64060028
:107F8000E47B0020295C8FC251B81E05E0910020DF
:107F900070B501210446222037F0CCFF01212220B8
:107FA00038F04CF84FF4967034F09EFA244805F0FF
:107FB0005FF9244805F020F8C8B1224800210646A0
:107FC00004F0FCFF0121304604F0AAFF02213046F4
:107FD00004F0BCFF34F07CFA054602E004F060FFD8
:107FE00058B934F075FA431B9C423046F6D8BDE8C8
:107FF00070401549154833F0EBB8124804F070FF93
:1080000090B1104805F098F810EE100A38F032FAE6
:108010000B460F4902460D4833F0DAF8BDE87040D0
:108020000C490A4833F0D4B8064805F035F810EE8C
:10803000100A38F01FFA0B4602460749EBE700BF6B
:1080400064960020787C0020846506003CA800200F
:10805000CC650600B86506009C65060030B583B0A7
:108060002921044668460EF0E5FC0F4805F000F9AA
:1080700034F02EFA054634F02BFA401BA04201D30F
:1080800003B030BD0849684629220EF0D5FC28B15E
:108090000649074833F09CF803B030BD0549044851
:1080A00033F096F803B030BD64960020E06506001A
:1080B0003CA80020F465060010B5012184B0222000
:1080C00037F038FF0121222037F0B8FF4FF47A70E3
:1080D00034F00AFA284805F0CBF800234022CDE915
:1080E0000132264800931A460F210EF08FFF002818
:1080F0003AD02248224C0FF003F8224884ED021AAD
:1081000084ED000AC4ED010A32F05CFF1E491D48EF
:1081100032F0A6FE206838F0ADF941EC100B0221D8
:10812000184832F0CFFE1949164832F099FE6068BF
:1081300038F0A0F941EC100B0221124832F0C2FED7
:108140001349104832F08CFEA06838F093F941ECE6
:10815000100B02210B4832F0EBFF0E49094804B026
:10816000BDE8104033F034B80B49064804B0BDE810
:10817000104033F02DB800BF64960020A07B002093
:10818000A47B00203CA80020246606003866060078
:108190004C660600606606000C66060010B50C4CC6
:1081A000206805F065F82068172105F07DF9206842
:1081B00005F0E4F928B9BDE810400649064833F057
:1081C00007B8BDE810400549034833F001B800BFC7
:1081D000F86F0020746606003CA800208866060040
:1081E00008B5104805F044F8642034F07DF90D4AD4
:1081F0000D481D210FF0A8F8642034F075F9094AE4
:1082000009481D210FF0A0F828B1BDE80840074932
:10821000074832F0DDBFBDE808400649044832F0A7
:10822000D7BF00BF64960020688F0020B8660600A4
:108230003CA80020A066060008B50A4805F018F81A
:108240000849094869220FF0F1F828B1BDE8084053
:108250000649074832F0BCBFBDE80840054904485C
:1082600032F0B6BF6496002038770020CC66060056
:108270003CA80020E066060008B508480FF006FAA2
:1082800028B9BDE808400649064832F0A1BFBDE85C
:1082900008400549034832F09BBF00BF0C7B00201B
:1082A000F86606003CA80020106706002DE9F0479C
:1082B00006462DED028B3B4804F0DAFF39493A4877
:1082C000012300220FF0E6FED8B134F001F9DFF807
:1082D000D8A080464FF00009002705E034F004F9EB
:1082E00050460FF0FDFBA0B934F0F2F80023B0EBDC
:1082F000080463EB0905B44275EB07034FF47A7089
:10830000ECDBBDEC028B29492948BDE8F04732F08F
:108310005FBF2849264832F0A3FD23480FF0ACFD8B
:108320000A220146224833F083F81F480FF082FDED
:1083300021491F48B0EE408A32F092FD18EE100A33
:1083400038F098F841EC100B0121194832F0BAFDD1
:108350001A49174832F084FD13480FF049FD10EE1A
:10836000100A38F087F841EC100B0121104832F068
:10837000A9FD0F4832F026FEFAEE047AB4EEE78A41
:10838000F1EE10FABDD4DFED0E7AB4EEE78AF1EE2D
:1083900010FAB6DCBDEC028B0A490548BDE8F0478F
:1083A00032F016BF6496002028780020246706006B
:1083B0003CA800203C67060048670600546706009A
:1083C000000070426467060000B5012189B02220D8
:1083D00037F0B0FD0121222037F030FE01210A20C4
:1083E00037F0A8FD01210A2037F028FE1C4804F0D0
:1083F0003FFF1B491B4812220FF0BCFE48B3C820A8
:1084000034F072F8174869460FF0D0FEE8B116490B
:10841000164832F03DFE1649144832F021FDBDF8F1
:108420000C1012480A2233F003F812490F4832F0B8
:108430002FFEBDF80C30B3F5C87F0AD80E490B48A3
:1084400032F0C6FE09B05DF804FB0C49074832F073
:108450001FFE0B49054832F0BBFE09B05DF804FB76
:10846000649600209C770020906706003CA80020BE
:10847000AC670600B4670600C4670600D86706004C
:108480007867060070B535482DED028B04F0F0FEDC
:10849000324A334868210FF03BFF4FF4FA7034F052
:1084A00023F82F480FF074FF2D48012202210FF00E
:1084B000B1FFC30741D50A2034F016F800249FED20
:1084C000298A274D2646E1B228460FF025FFB4EE53
:1084D000C80AF1EE10FAC8BF264604F10104C8BF6D
:1084E000B0EE408A402CEED11F49204832F0B8FC53
:1084F0000A2231461D4832F09BFF1D491B4832F0CD
:10850000AFFC18EE100A37F0B5FF41EC100B02215A
:10851000164832F0D7FC1749144832F0B9FDFAEE8C
:10852000047AB4EEE78AF1EE10FA06D4DFED127A9F
:10853000B4EEE78AF1EE10FA07DDBDEC028B0F49CD
:108540000A48BDE8704032F043BEBDEC028B0C49D6
:108550000648BDE8704032F03BBE00BF6496002084
:10856000107700200000C8C2F06706003CA8002079
:1085700008680600D88F06000000704210680600E8
:108580002868060008B50121222037F0D3FC01211C
:10859000222037F053FD094A0948332110F0B6F97B
:1085A00028B1BDE808400749074832F011BEBDE8D0
:1085B00008400649044832F00BBE00BF6496002014
:1085C000DC7C0020546806003CA800203C680600C3
:1085D00008B50121222037F0ADFC0121222037F01F
:1085E0002DFD4FF4967033F07FFF094804F040FEF4
:1085F000084811F0CDFB28B1BDE8084006490748FE
:1086000032F0E6BDBDE808400549044832F0E0BD5F
:108610006496002044780020686806003CA800208A
:108620007C6806000000000038B50121222037F0E8
:1086300081FC0121222037F001FD2B4811F0F4FBD1
:10864000294811F089FC80283AD12748002111F0EF
:108650002FFC254847F6FF7111F046FC4CF2E02153
:10866000214811F05DFC9FED210A1F4811F01CFC10
:108670001D4811F005FC10EE104A1D491D4832F04E
:108680009DFB204637F0F6FE04460D4645EC104BA8
:108690000221184832F016FC1749164832F0F8FC4F
:1086A0000DA3D3E900232046294638F0CBF938B191
:1086B0000BA3D3E900232046294638F0A5F928B9B1
:1086C000BDE838400D490B4832F082BDBDE8384066
:1086D0000B49084832F07CBD9A99999999990940BB
:1086E0003333333333330B40E89500206F1283402C
:1086F000AC6806003CA80020B86806009468060034
:10870000BC68060030B5012183B0042037F012FCAC
:108710000121042037F092FC0A2033F0E5FE00210D
:10872000042037F08BFC0A2033F0DEFE0121042008
:1087300037F084FC0A2033F0D7FE2048204A042179
:10874000054617F03DFD0024E1B2012228461444FD
:10875000019117F04BFD01990022284617F0A2FD68
:10876000102CF1D14FF47A7033F0BEFE134D00247B
:108770000122E1B22846144417F094FD102CF7D1E1
:108780004FF47A7033F0B0FE0C4D0024E1B20022B9
:108790002846013417F086FD102CF7D14FF47A707B
:1087A00033F0A2FE054D00240122E1B22846144414
:1087B00017F078FD102CF7D103B030BDBC7C002041
:1087C00064960020F8B55E482DED028B04F050FD54
:1087D0005C4827F027FD002800F0A98059480F21A8
:1087E00027F0BCFB5748072127F0DEFB55484FF424
:1087F000C05127F0FDFB4FF40051524827F096FC82
:108800009FED510A4F4827F06FFB5049504832F016
:108810003FFC9FED500A4B4827F03EFB494827F0AC
:10882000ABFC4848F0EE408A27F0D6FC18EE900AE0
:10883000B0EE408A37F01EFE044642480D4627F04F
:1088400083FDDFED457A3F48B0EE487AA8EEA77A7F
:1088500010EE107AF0EE478A27F0D6FC3F49064624
:108860003B4832F0FDFA45EC104B0221384832F01B
:108870005FFC3B49364832F0F3FA18EE100A37F045
:10888000F9FD41EC100B0221314832F051FC354921
:108890002F4832F0E5FA18EE900A37F0EBFD41EC84
:1088A000100B02212A4832F043FC2F49284832F0AD
:1088B000D7FA2E4B00222046294637F033FE38F0F7
:1088C00029F937F0D7FD41EC100B0221204832F096
:1088D0002FFC27491E4832F0C3FA384637F0CAFD4C
:1088E00041EC100B1A48022132F022FC7EB12149E2
:1088F000174832F0CDFB2049154832F069FCBDEC39
:10890000028B4FF4FA70BDE8F84033F0EDBD1B491F
:108910000F4832F0BDFB1A490D4832F059FCBDEC4E
:10892000028B4FF4FA70BDE8F84033F0DDBDBDECCA
:10893000028B11490648BDE8F84032F049BC00BF3F
:1089400064960020B07B0020CDCCCC3D00690600B1
:108950003CA80020A4707D3F6F12833A3469060062
:108960004C69060060690600746906000000244036
:1089700084690600DC690600D06806009869060074
:10898000B069060000B595B06821684629F0F6FE8A
:108990000A4804F06DFC684629F0FAFE30B908492F
:1089A000084832F015FC15B05DF804FB064905488F
:1089B00032F00EFC15B05DF804FB00BF6496002099
:1089C000FC6906003CA80020146A060000000000B4
:1089D00030B52DED028B6A4A6A4889B0542106F001
:1089E00037FA002800F0A5809FED670A654806F079
:1089F00055FC644806F056FC10EE100A37F03AFDBC
:108A00005BA3D3E9002304460D4638F01BF8002889
:108A100000F0978056A3D3E900232046294637F07B
:108A2000C9FB38F057F8C4B2002C40F09780554885
:108A300006F0FAFBDFED547AC7EE807AF0EE408A5A
:108A400017EE900A37F016FD504B002237F0B2FBBC
:108A500049A3D3E9002337F065FD38F05BF84C49B2
:108A6000034602A808EE103A33F0D8FAB0EE680ACE
:108A700005A8022133F026FB05A902A833F0D8FB94
:108A8000444933F001FC0146434832F0BBFA05A8E3
:108A900033F056FB02A833F053FB404902A833F0F1
:108AA000BDFAB0EE480A05A8022133F00BFB05A978
:108AB00002A833F0BDFB3A4933F0E6FB01463648E5
:108AC00032F0A0FA05A833F03BFB02A833F038FBE4
:108AD000FDEEC87A5A2217EE900A2346009242F21F
:108AE000107144F6206233F08BFA08EE100A2D491B
:108AF00002A833F093FAB8EEC80A05A8022133F0B1
:108B0000E1FA05A902A833F093FB274933F0BCFB37
:108B10000146214832F076FA05A833F011FB02A88D
:108B200033F00EFB1C4832F04DFA09B0BDEC028B5D
:108B300030BD1E49184832F0ABFA09B0BDEC028BCB
:108B400030BD22462B460AA1D1E9000137F032FBA5
:108B500037F0C0FFC4B2002C3FF469AF14490E488F
:108B600032F096FA09B0BDEC028B30BDAFF3008055
:108B70006666666666660A40000000000088C340BC
:108B80006496002018770020333353400000F03FF4
:108B9000286A0600346A06003CA80020386A0600ED
:108BA000486A0600506A0600586A06008C6A060089
:108BB000646A060008B50121222037F0BBF90121C3
:108BC000222037F03BFA0B4804F052FB09485521AC
:108BD00004F06AFC074804F0D1FC28B1BDE8084065
:108BE0000549064832F0F4BABDE808400449034894
:108BF00032F0EEBA64960020A46A06003CA8002079
:108C0000BC6A060008B50121222037F093F9222022
:108C1000012137F013FA084824F03CFB28B1BDE8E5
:108C200008400649064832F07DB9BDE808400549CC
:108C3000034832F077B900BF08940020E86A0600C4
:108C40003CA80020D06A060008B50121222037F098
:108C500071F90121222037F0F1F90121042037F0C8
:108C600069F90221152037F065F90121042037F058
:108C7000E5F94FF4FA7033F037FC152037F0FCF9C2
:108C800028B9BDE808400549054832F0A1BABDE859
:108C900008400449024832F09BBA00BFFC6A060053
:108CA0003CA80020106B06002DE9F8430121044682
:108CB000092037F03FF90121092037F0BFF90121E0
:108CC0000A2037F037F901210A2037F0B7F933F0DD
:108CD000FFFB002580464FF0000933F0F9FB00232D
:108CE000B0EB080663EB0907A64277EB0503F4DB5C
:108CF0000649074832F0CCF90021092037F09EF9E7
:108D0000BDE8F84300210A2037F098B9286B060027
:108D10003CA8002008B50121222037F00BF90121E1
:108D2000222037F08BF94FF4967033F0DDFB0121F0
:108D3000112037F0FFF81120012137F07FF90848A2
:108D400026F0DEFF28B1BDE808400649064832F0AB
:108D50003FBABDE808400549034832F039BA00BFC0
:108D6000507B0020386B06003CA800204C6B0600AE
:108D700070B501210A2037F0DDF801210A2037F013
:108D80005DF9224804F074FA2149204804F0CCFA35
:108D90002049214832F07CF91C49204823F0DCFFAF
:108DA00068B31E481A21054623F072FF05240023EC
:108DB0001A46FF21284623F081FF4FF4A57033F0B7
:108DC00093FB00231946FF22284623F077FF4FF438
:108DD000A57033F089FB00221146FF23284623F0BB
:108DE0006DFF4FF4A57033F07FFB013CDFD12346CC
:108DF000224621460948BDE8704023F05FBFBDE828
:108E000070400749044832F0E3B900BF649600207F
:108E1000A0860100646B06003CA80020E8910020B9
:108E20007C6B060008B50121222037F083F8012170
:108E3000222037F003F90A4804F01AFA094827F00B
:108E400071FB030605D4BDE808400749074832F026
:108E5000BFB9BDE808400649044832F0B9B900BFBF
:108E600064960020E8B80020A86B06003CA800200B
:108E7000946B060010B52DED028B012488B02D4AAD
:108E800002920A23214622208DF818308DF80C40DA
:108E900037F050F82146222037F0D0F8264A6846AD
:108EA000562105F0D5FFA8B3E021684606F004F886
:108EB0009FED220A684606F0F1F9684606F0B4F91B
:108EC000642033F011FB684606F0AEF9642033F0FD
:108ED0000BFB684606F0A8F9DFED197A60EE277AF9
:108EE000B0EE408A17EE900A37F0C4FA02460B46FD
:108EF0001448154932F06CF9DFED147AB4EEE78AC4
:108F0000F1EE10FA06D5F6EE007AB4EEE78AF1EE4D
:108F100010FA07DC0E490B4832F05AF908B0BDECE4
:108F2000028B10BD0B49074832F052F908B0BDEC76
:108F3000028B10BD0000A0406496002033335340E4
:108F400000007A443CA80020D86B06003333333F3E
:108F5000C06B0600FC6B060038B52848284C04F0AE
:108F600087F92849254804F0DFF92449204628F0EC
:108F70008FFB237B73B12449244832F029F9204622
:108F800028F064FC637A5BB1BDE8384020491F4893
:108F900032F01EB9BDE838401E491C4832F018B9FD
:108FA000204628F051F9204610EE104A28F05CF9CE
:108FB00010EE105A1849154831F052FF284637F084
:108FC00059FA41EC100B0221104831F07BFF134994
:108FD0000E4831F045FF204637F04CFA41EC100BBB
:108FE00002210A4831F06EFF0D49084832F050F86E
:108FF000BDE838400649054832F0EAB864960020DA
:109000005C910020801A0600106C06003CA800202D
:10901000546C06007C6C06003C6C0600446C060038
:109020004C6C060000B58BB0114901A809F0D2F8CC
:109030000121222036F07EFF0121222036F0FEFFA2
:109040000C4804F015F90B4A01A82C2109F09CFAF0
:1090500030B10949094832F0BBF80BB05DF804FBA8
:109060000749064832F0B4F80BB05DF804FB00BFC6
:109070000103010864960020C06C06003CA8002093
:10908000A86C060010B582B0002401212220ADF8A2
:10909000064036F04FFF0121222036F0CFFF4FF47B
:1090A000967033F021FA0121092036F043FF214662
:1090B000092036F0C3FF4FF47A7033F015FA0B48ED
:1090C0000EF0B4F87F210DF1060208480EF0B6F854
:1090D000BDF80620064843F255039A420CBF0549E5
:1090E000054932F075F802B010BD00BFE87B0020E2
:1090F0003CA80020D46C0600E86C060010B51548AA
:1091000028F0A4FE28B9BDE810401349134832F0F6
:109110005FB81349114832F05BF80E48022128F07D
:10912000BFFE10EE104A0F490C4831F099FE204660
:1091300037F0A0F941EC100B0221084831F0C2FED3
:109140000949064831F0A4FFBDE81040074903482B
:1091500032F03EB884BF0020006D06003CA800201D
:109160002C6D0600586D0600646D06006C6D0600DF
:1091700070B52A492A4886B004F028FC284804F033
:10918000B1FC1E200B210C220D238DE80F0040F2B4
:10919000E57106230422224804F02CFD4FF47A7076
:1091A00033F0A2F91E4804F01DFE02461C48059249
:1091B00004F0F6FD03461A48049304F0CFFD06467A
:1091C000174804F0ADFE0446154804F087FE054636
:1091D000134804F061FEDDE9043212490390CDE941
:1091E00001451148009631F0F3FF0D4804F0FAFDF7
:1091F0000B2806D00D490C4806B0BDE8704031F090
:10920000E7BF074804F0CCFD0C28F3D1044804F074
:10921000A5FD0E28EED10649EDE700BF64960020BB
:10922000F4910020946D06003CA80020BC6D06005F
:10923000A86D06002DE9F0438DB04FF47A72334BE0
:10924000059206464FF0000808A80393CDF8108059
:1092500031F07EFD0823012122208DF82C3036F0DC
:1092600069FE0121222036F0E9FE1A201EF046FD9B
:10927000274A284B52682848029201A901931EF000
:109280001DFD1EF04BFD00283DD01EF03DFD0228C7
:1092900030D042F2B82103A81EF09CFD1F4920489F
:1092A00031F0F6FE33F014F94FF000098046002744
:1092B00001E033F019F933F00BF90023B0EB0804A7
:1092C00063EB0905B44275EB07034FF06400F0DB74
:1092D0001449134831F0DCFE0021222036F0AEFEA6
:1092E000642033F001F90121222036F0A7FE0DB0F1
:1092F000BDE8F0830C490A4831F0CAFE0B49084822
:1093000031F066FFE8E70A49F5E700BF689E06000E
:10931000DC7B002060A9060048600020586E060033
:109320003CA80020686E0600346E06001C6E060025
:10933000D46D060000B585B00023012122208DF8F0
:10934000073036F0F7FD0121222036F077FE4FF48A
:10935000967033F0C9F84FF4C87304221A212C48D0
:109360000DF0ACFC2A48B3EE0D0A0DF05BFD9FED4D
:10937000290A27480DF02EFD4FF4FA7033F0B4F8A7
:109380000DF1070303AA224802A90DF0C5FC2249EA
:10939000224831F065FD039837F06CF841EC100B72
:1093A00002211E4831F08EFD1D491C4831F058FD48
:1093B0001C491A4831F054FD029837F05BF841EC33
:1093C000100B0221154831F07DFD1749134831F08B
:1093D0005FFEDDED027ABAEE047AF4EEC77AF1EEC2
:1093E00010FA06DD9FED117AF4EEC77AF1EE10FA6D
:1093F00006D40F49094831F0EBFE05B05DF804FBD7
:109400000C49064831F0E4FE05B05DF804FB00BFEE
:10941000AC7C002000000842806E06003CA80020C2
:10942000906E06009C6E0600AC6E06000000704256
:10943000C86E0600B46E060070B5144E00210546D5
:109440001F20317036F076FD114904221F2032F0C2
:1094500029FC33F03DF8044601E033786BB933F072
:1094600037F8001B8542F8D80A490B4831F0B0FEA6
:10947000BDE870401F2032F019BD0849064831F0A0
:10948000A7FEBDE870401F2032F010BD5D7B0020BC
:10949000DD620200F46E06003CA80020E06E0600CB
:1094A00070B5144E002105460A20317036F042FD99
:1094B000114902220A2032F0F5FB33F009F8044684
:1094C00001E033786BB933F003F8001B8542F8D81C
:1094D0000A490B4831F07CFEBDE870400A2032F0AA
:1094E000E5BC0849064831F073FEBDE870400A202B
:1094F00032F0DCBC5C7B0020C9620200206F0600F9
:109500003CA800200C6F060008B501210A2036F0A7
:1095100011FD01210A2036F091FD0121032036F0D2
:1095200009FD01211A2036F005FD0121152036F034
:1095300001FD01211E2036F0FDFC00211A2036F02D
:109540007DFD00211E2036F079FD0121032036F03B
:1095500075FD0121152036F071FD4FF4FA6032F0EF
:10956000C3FF01211A2036F069FD01211E2036F0CB
:1095700065FD0021032036F061FD0021152036F045
:109580005DFD4FF4FA6032F0AFFF00211A2036F093
:1095900055FD00211E2036F051FD0021032036F03C
:1095A0004DFDBDE808400021152036F047BD00BF45
:1095B00008B50121222036F0BDFC0121222036F021
:1095C0003DFD0121112036F0B5FC0121112036F0BE
:1095D00035FD0121112036F031FD0749074831F0F2
:1095E00057FD4FF47A7032F07FFFBDE8084000214C
:1095F000112036F023BD00BF386F06003CA80020C4
:109600002DE9F04F91B0754907A832F007FD01210F
:10961000222036F08FFC0121222036F00FFD4FF47E
:10962000967032F061FF6E496E4831F031FD6E4840
:109630001DF080FA4FF4FA7032F056FF6A481DF0C0
:10964000B5FA32F045FF039032F042FF4FF00009C7
:10965000A0F57A7732F03CFF039BB0EB030A4FF0A2
:10966000000363EB030B41F287330024534574EB93
:109670000B03C0F2A88032F02BFFC31B00934FF006
:10968000000363EB09030193DDE900124FF47A73E1
:1096900000248B4274EB020328DB53481DF056F97B
:1096A000051E5EDBD6D00023CDE904ABDFF83881A0
:1096B000CB460126B9460DAC1F460BE032F0E2FC6A
:1096C000214607A832F06EFD204632F039FDB54242
:1096D0004BDD013640461DF069F90146C9B20A2941
:1096E0002046EBD1B54246DD0127F2E732F0F0FE2D
:1096F0000DAC412107460AA832F0C4FC0AA9204655
:1097000032F0A6FC3949204632F0BEFD0022014667
:1097100035481DF005FB204632F012FD0AA832F054
:109720000FFD3349204632F079FC41210AA832F07E
:10973000A9FC0AA9204632F07BFD2C4932F0A4FD99
:109740000146284831F05EFC0AA832F0F9FC2046B8
:1097500032F0F6FC24481DF0F9F8051E4FF0000920
:10976000A0DA21481DF08CF974E73B464F46D946F4
:10977000002B3FF46FAF1F49204632F04FFC07A982
:10978000204632F055FD0146164831F03BFC20469C
:1097900032F0D6FC1849204632F040FC214607A89A
:1097A00032F0E2FD0546204632F0CAFC013514BF16
:1097B000124913490B4831F00BFD07A832F0C0FCE9
:1097C00011B0BDE8F08F0E49064831F001FD07A841
:1097D00032F0B6FC11B0BDE8F08F00BFB0760600E5
:1097E0004C6F06003CA8002044910020606F0600EA
:1097F000646F0600686F06006C6F0600746F0600E9
:10980000886F06002DE9F047002107460A2036F050
:1098100091FB0021042036F08DFB0021092036F059
:1098200089FB3449DFF8F080334D344CDFF8ECA08D
:109830000322092032F036FA314904220A2032F09C
:1098400031FA042210462F4932F02CFA2E492F48C3
:1098500031F01EFC32F03CFE4FF00009064632F0BB
:1098600037FE801BB8424FF001011BD22A782378C3
:109870001AB185F8009088F800100BB39AF8003000
:1098800084F8009088F80110002BE8D001238AF8B2
:10989000009088F8023032F01BFE801BB8424FF077
:1098A0000101E3D398F80030012B03D198F801307F
:1098B000012B0FD0BDE8F0471549144831F088BCA2
:1098C0009AF80030002BCAD001238AF8009088F85B
:1098D0000230E0E798F80230012BEBD10D490B483C
:1098E00031F076FC0023A8F8003088F80230BDE89B
:1098F000F08700BF15630200DC9100202C7B002064
:10990000216302002D630200A06F06003CA8002026
:1099100010700600FC6F0600AC770020687800200D
:1099200008B50121222036F005FB0121222036F066
:1099300085FB4FF4967032F0D7FD0121042036F0FC
:10994000F9FA0121042036F079FB0121152036F0C7
:10995000F1FA0021152036F071FB01210A2036F0C2
:10996000E9FA01210A2036F069FB0121042036F0D2
:1099700065FBC821152036F0FDF84FF4FA6032F08F
:10998000B3FD0021152036F0F5F84FF47A7032F06F
:10999000ABFD0021042036F051FBC821152036F024
:1099A000E9F84FF4FA6032F09FFDBDE8084000216D
:1099B000152036F0DFB800BF08B50121222036F0AF
:1099C000B9FA0121222036F039FB0121112036F0AD
:1099D000B1FA0021112036F031FB0A4803F048FCAF
:1099E00008490948562225F0C5FF28B9BDE80840B6
:1099F0000649074831F0ECBBBDE80840054904487A
:109A000031F0E6BB64960020E07700202870060065
:109A10003CA800204070060008B50121222036F045
:109A200089FA0121222036F009FB0121112036F0AC
:109A300081FA0021112036F001FB0A4803F018FCDE
:109A400008490948562225F095FF28B9BDE8084085
:109A50000649074831F0BCBBBDE808400549044849
:109A600031F0B6BB64960020507700205470060099
:109A70003CA800206C70060008B50121222036F0B9
:109A800059FA0121222036F0D9FA0121112036F0AD
:109A900051FA0021112036F0D1FA0A4803F0E8FB10
:109AA00008490948562225F065FF28B9BDE8084055
:109AB0000649074831F08CBBBDE808400549044819
:109AC00031F086BB64960020447700208070060049
:109AD0003CA80020987006002DE9F84301210646B5
:109AE000112036F027FA0121222036F023FA112125
:109AF000624830F0ADFF2221604830F0A9FF5F4896
:109B000040F69F7130F09EFF00234FF4FA6211215E
:109B10005A4831F043F800234FF4FA6222215748A3
:109B200031F03CF8554830F079FF04224FF0FF3314
:109B30005348152126F058FD51484FF4807126F006
:109B40005FFE50494E4826F04FFE4D48142126F046
:109B50004DFE4B480422022126F04AFD40B94A49F5
:109B60004A4831F035FBBDE8F843454826F012BEBF
:109B700032F0AEFC074632F0ABFCC01BB0F57A7F8A
:109B8000434C4FF0000511D22368002B07DD414AFA
:109B90000023216822F8025B01339942F9DC256039
:109BA00032F096FCC01BB0F57A7FEDD333483A4DC6
:109BB0003A4CDFF8DC8040F69F7130F043FF002321
:109BC0004FF4FA6211212D4830F0E8FF00234FF4E2
:109BD000FA622221294830F0E1FF32F079FC074691
:109BE00032F076FCC01BB0424FF000092ED2D8F8FC
:109BF0000030002B23DDB5F900E0B4F900C02548A2
:109C0000002206E0D8F8003020F8029C01329A4287
:109C100011DA30F9021B01F516739BB2B3F5966F9A
:109C2000F0D9D8F800308C4502F10102A8BF8C466B
:109C30009A428E46EDDBA5F800E0A4F800C0C8F813
:109C4000009032F045FCC01BB042D0D3B4F90010F4
:109C50000E480A2231F050FBB5F900100B480A22D9
:109C600031F04AFB002305482B80238030F0D6FEDC
:109C7000BDE8F843024826F08DBD00BF68D0002043
:109C8000F8B8002089CC0200AC7006003CA8002087
:109C9000F8930020F8910020B87C0020D87C0020A8
:109CA00038B50121154C0546112036F043F9012144
:109CB000222036F03FF92046112130F0C9FE20461F
:109CC000222130F0C5FE204640F69F7130F0BAFEEA
:109CD000204600234FF4FA62112130F05FFF002389
:109CE00020464FF4FA62222130F058FF204630F02F
:109CF00095FE2846BDE83840FFF7EEBE68D000204C
:109D00002DE9F84F01212DED028B8046242036F0FD
:109D100095F90021042036F00DF901210A2036F0D2
:109D200009F90121092036F005F900210A2036F051
:109D300085F90021092036F081F90121242036F02F
:109D4000F9F8474DDFF82491DFF824A101210A201A
:109D500036F0F0F801210A2036F070F945F00105DF
:109D60004FF44070A84700210A2036F067F900211F
:109D7000042036F0DFF84A460121042035F0CEFCFD
:109D8000212032F0B1FB4FF47A7032F0ADFB32F0AB
:109D90009FFB31A7D7E9006704464AE036F0CAF8CE
:109DA00001210A2036F04AF94FF44070A8470021FB
:109DB0000A2036F043F90021042036F0BBF84A4669
:109DC0000121042035F0AAFC8346212032F08CFBCF
:109DD000584636F03DFB32463B4636F0A3FB36F0A4
:109DE00051FE034607EE903A45F63B62013B934233
:109DF000DFF880C0F8EEE77A4FF000014FF0240062
:109E000025D89CED008A67EE887ABDEEE78A36F0A9
:109E100015F918EE101A0A22124831F04BFA1249BD
:109E2000104831F01DF80F4831F0CCF8642032F0C2
:109E30005BFB32F04DFB03461B1B43454FF001011A
:109E40004FF00A00AAD3BDEC028BBDE8F88F514653
:109E5000044831F01DF9E9E79A779CA223B9E83F5D
:109E6000208006003CA80020C470060040420F007D
:109E7000C87006005060002029482DE9F0474FF4D3
:109E8000E131064618F0A2FA01E032F02DFB30462F
:109E900018F0B4FA03464FF49670002BF5D032F068
:109EA00017FBDFF87C9080464FF0000A41F28736BE
:109EB00000270EE032F00CFB0023B0EB080463EB4C
:109EC0000A05A64277EB05034FF0640006DB32F08B
:109ED0000BFB484618F092FA0028EBD011491048C5
:109EE00031F0D6F810490E4831F0D2F80F490C483D
:109EF00031F0CEF80B490A4831F0CAF8012122208E
:109F000036F018F80021222036F098F84FF47A70D5
:109F100032F0EAFABDE8F0470121222036F08EB88F
:109F20003CA80020D87006000071060014710600DD
:109F300030B51B4D1B4C93B02846022108F0BAFEE9
:109F4000642032F0D1FA6A4609A9284609F02AF8B5
:109F50001549204630F084FF059836F08BFA41EC25
:109F6000100B2046022130F0ADFF1049204631F0A1
:109F70008FF80F49204630F073FF0E9836F07AFACA
:109F800041EC100B2046022130F09CFF094920468D
:109F900031F07EF80849204631F07AF813B030BD30
:109FA000607B00203CA8002024710600347106006C
:109FB000407106004C710600B076060008B50C4AE8
:109FC0000C4800235D2108F0F7FE28B9BDE80840E1
:109FD00009490A4831F0FCB80949084831F0F8F855
:109FE000FFF7A6FFBDE808400649044831F0F0B885
:109FF00064960020607B0020547106003CA800207D
:10A0000084710600B071060010B5044634F018FDE6
:10A01000204610BD30B50121A3B02220324C334D73
:10A0200035F088FF0121222036F008F84FF49670B1
:10A0300032F05AFA2E49204630F074FF0A211A20D5
:10A0400020F0A0F92B49204630F06CFF2A4B1A690A
:10A0500000920FCB20F02CFB062020F0A7FA0A205C
:10A0600020F08EFA44F2340020F0B6FA234920465C
:10A0700030F058FF02A820F089F92946204630F038
:10A08000EFFE02A9204631F003F802A820F0A6F95D
:10A090001B49204630F0E4FE02A9204630F0F8FFCC
:10A0A00002A820F0C9F91749204630F0D9FE02A9CC
:10A0B000204630F0EDFF02A820F0E4F912492046D6
:10A0C00030F0CEFE02A9204630F0E2FF02A820F0D8
:10A0D0005DF92946204630F0C3FE02A9204630F043
:10A0E000D7FF23B030BD00BF3CA800204C72060053
:10A0F000EC71060014720600046000203072060045
:10A100005872060064720600847206002DE9F0435E
:10A1100085B0FFF77FFF002020F09AFA32F0D8F9DF
:10A120004FF00009804641F28736002702E01FF019
:10A1300089FE88B932F0CCF90023B0EB080463EB58
:10A140000905A64277EB0503F1DA2649264831F0E6
:10A150003FF805B0BDE8F0831FF09AFE234821F0D8
:10A160005BF92349204830F07BFE20491E4830F03F
:10A1700049FF20491C4830F073FE21F0D5F910EE5C
:10A18000100A36F077F941EC100B0221164830F036
:10A19000CFFF1949144830F063FE21F08FF910EE1B
:10A1A000100A36F067F941EC100B02210E4830F02E
:10A1B000BFFF0D4830F006FF104901A831F02EFF17
:10A1C00001A90A4832F0D0F8044601A831F0B8FFDE
:10A1D0000134BAD00A49044830F0FAFF05B0BDE8AE
:10A1E000F08300BFF87206003CA80020CC7C002061
:10A1F00094720600A4720600BC720600D4720600B7
:10A20000E472060010B58CB0024601900C4613486B
:10A21000134930F0DDFF03A8019A1249172323F0F8
:10A2200019FC03A823F066FB90B1214603A830F087
:10A2300017FE40B90C49094830F02AFF03A823F063
:10A240004DFB0CB010BD0949044830F021FFF5E783
:10A250000749024830F01CFF0CB010BD3CA800209C
:10A260001073060044B60020347306002473060001
:10A270004473060030B587B0B1FA81F5044605AAEB
:10A280000191042301466D091948039525F0BEFC90
:10A290000121174825F074FC04230DEB030221462D
:10A2A000134825F081FC0021114825F069FC214666
:10A2B00003AA04230E4825F0A9FC04AA04230021C4
:10A2C0000B4825F0A3FC0121094825F059FC214643
:10A2D00005AA0423064825F067FC0021044825F060
:10A2E0004FFCDDE90303834208BF002007B030BD07
:10A2F000407B002030B5012183B0222035F01AFECA
:10A300003F4D0121222035F099FE4FF4967032F036
:10A31000EBF829783B4825F0A1FB00285AD03A49B0
:10A320003A483B4C30F0B4FE0121364825F028FC79
:10A330000021344825F0CCFC0021324825F020FCD7
:10A340004FF47A7032F0D0F82E48022125F0D2FC7A
:10A3500021460420FFF78EFFA04215D02948032193
:10A3600025F0C8FC21460420FFF784FFA0423BD023
:10A370002448042125F0BEFC21460420FFF77AFF83
:10A38000A04239D0234926E002232B7000230DF18F
:10A3900006020DF105011B488DF80530ADF80630B9
:10A3A00025F068FCBDF806309DF805201A491748CD
:10A3B00030F00EFF9DF80530042B05D1BDF80620C6
:10A3C00044F603139A4212D01449104830F000FFAB
:10A3D00003B030BD12490D4830F05AFE0F490B480A
:10A3E00030F0F6FE03B030BD03232B70CEE70D49ED
:10A3F000064830F0EDFEEBE704232B70C6E700BF04
:10A4000030600020407B00207C7306003CA80020C8
:10A41000ADBEEFBED473060010740600BC73060018
:10A420008C7306003874060010B586B01A4901A86E
:10A4300003F0D2F99DF90A40BCB9019C17491848AC
:10A4400030F00EFD1749164830F00AFD204636F070
:10A4500011F841EC100B0221114830F033FD124984
:10A460000F4830F015FE06B010BD0C4903A831F0BE
:10A47000D5FD03A90A4830F0CFFC0C49084830F05C
:10A48000EFFC21460A22064830F036FF03A831F0DF
:10A4900057FE06B010BD00BF9C91002068740600F6
:10A4A0003CA8002080810600607406004C74060001
:10A4B00008B54421174803F061F916484CF21061C1
:10A4C00003F066F980B11449144830F081FE114858
:10A4D00003F0FCF943F2010398420FD0BDE80840B5
:10A4E0000F490E4830F074BE0A4803F02DFA0948AF
:10A4F00003F0ECF943F201039842EFD10949074810
:10A5000030F066FEFFF790FFBDE8084006490348BB
:10A5100030F05EBE9C910020707406003CA80020C4
:10A52000FC740600A8740600D474060038B51B4CF1
:10A530001B4D1C49204630F093FC284627F0D8FFDD
:10A5400010EE100A35F096FF41EC100B2046042166
:10A5500030F0EEFD1449204630F082FC284627F00A
:10A560000FFF10EE100A35F085FF41EC100B20466E
:10A57000042130F0DDFD0D49204630F071FC284605
:10A5800027F05AFF10EE100A35F074FF41EC100B63
:10A5900020460421BDE8384030F0CABD3CA8002068
:10A5A000EC7700202875060034750600407506001B
:10A5B00008B50B4827F028FE28B1BDE80840094936
:10A5C000094830F005BE0949074830F001FEFFF7A1
:10A5D000ADFFBDE808400649034830F0F9BD00BFB3
:10A5E000EC770020487506003CA800207475060032
:10A5F000A07506000000000038B52F4C2F4D3049E3
:10A60000204630F02DFC286835F034FF41EC100B6B
:10A610002046022130F056FC2A49204630F038FD11
:10A620002949204630F01CFC686835F001FF1EA364
:10A63000D3E9002335F076FF41EC100B20460221D0
:10A6400030F040FC2149204630F022FD20492046D0
:10A6500030F006FCA86835F00DFF41EC100B2046E9
:10A66000022130F02FFC1B49204630F011FD1A4921
:10A67000204630F0F5FBE86835F0DAFE0CA3D3E9AC
:10A68000002335F04FFF41EC100B2046022130F043
:10A6900019FC2046114930F0FBFC2046BDE838404B
:10A6A00030F090BCAFF300807B14AE47E17A843F7A
:10A6B000FCA9F1D24D62503F3CA80020787A0020DE
:10A6C0009C6E0600C8750600586D06004C710600A9
:10A6D000CC750600D8750600DC750600E47506002A
:10A6E00008B51E4802F0C4FD1D480122762128F05D
:10A6F000C5F860B31B491C4830F06AFD04211848B6
:10A7000028F0D0F90221164828F0DCF9032114487A
:10A7100028F0E8F90221124828F0F4F996224FF4C3
:10A72000A0710F4828F0A6F9642031F0DDFE0C4836
:10A7300028F034F918B1BDE80840FFF75DBF0B49B8
:10A74000094830F0A5FCBDE80840FFF755BFBDE85B
:10A7500008400749044830F03BBD00BF6496002024
:10A76000787A0020187606003CA800204076060083
:10A77000EC7506002DE9F8434E4F4F4DDFF844913C
:10A78000002138462AF0CEFF284630F01BFC4B490A
:10A79000284630F065FB07F58278444607F20D162F
:10A7A00014F8011F0B094FF0100228464CD030F06E
:10A7B000D5FDB442F4D14048414C424E054630F0FC
:10A7C00001FC4149284630F04BFB14F8011B0B09F2
:10A7D0004FF01002284642D030F0C0FDA045F4D121
:10A7E000354830F0EFFB3949334830F039FB97F802
:10A7F0000F31002B49D036492F4830F049FC3549FC
:10A800002D4830F02DFB97F81031002B38D030490F
:10A81000294830F03DFC3049274830F021FB97F8BB
:10A82000113143B32A49244830F032FC224830F039
:10A83000C9FB97F80F312BB197F8103113B197F886
:10A8400011313BBBBDE8F883494630F009FB217864
:10A850001022284630F082FDB442A1D1ABE7314648
:10A8600030F0FEFA14F8011C1022284630F076FD74
:10A87000A045AAD1B4E719490F4830F009FCD5E743
:10A8800016490D4830F004FCC5E714490A4830F079
:10A89000FFFBB4E70748012200212BF067FA0028EC
:10A8A000D0D10F49044830F0F3FBBDE8F84302482B
:10A8B00030F088BB6C7800203CA800206076060051
:10A8C0006C790020545A06007476060084760600DF
:10A8D00098760600A0760600B47606009476060008
:10A8E000C476060008B50121222035F023FB0121A2
:10A8F000222035F0A3FB0D4802F0BAFC0C4B0B4AAA
:10A900000C4860212AF01CFE50B1FFF733FF0A49C2
:10A91000074830F05DFCBDE80840052031F0E4BD9B
:10A92000BDE808400549024830F052BC649600205A
:10A930003CA800206C7800200C770600F476060016
:10A940002DE9F04FAB48DFF8A893DFF8A8A3AA4C95
:10A95000AA4EAB4DDFF8A083DFF8A0B383B003F0BD
:10A9600033F8A849A84AA94BC2F808A000274FF01D
:10A970000A0C0F734FF0010182F818C083F818C059
:10A980001173C3F808A01973A14807F031FE4846B7
:10A9900008F0FEF99F4BC9F8003022469E49484610
:10A9A00036F0CEFA9D48DFF8589308F027FB9C4B11
:10A9B0003360222306F17000F3669A4BB366394682
:10A9C000C6F8D0014FF4B07236F092FB964BC6F841
:10A9D000CC3122469549304636F0B2FA944B954830
:10A9E000C3F808A04FF00A0C4FF0010283F818C01A
:10A9F00053211A7302F036FA8F4B9048904EDFF8CD
:10AA000004A34FF6FF725A600CF0FCFA28462A2184
:10AA10000CF00AFC22468B49284636F091FA8A4807
:10AA20008A4D0CF03DFC692189480CF0F9FC7D4908
:10AA300040460CF035FD22468649404636F080FA05
:10AA40008548DFF8C4820DF03FF8122183480DF0ED
:10AA500063FB83480DF00EFD82480DF013FF714932
:10AA600081480FF081F94A2180480FF0CFF958460C
:10AA70000FF080FA22467E49584636F061FA314698
:10AA8000504631F0CBFA22462946504636F058FA65
:10AA90007849794A09681268784B7948DFF86CB2CE
:10AAA000DFF86CA2CDE9002176491B68012215F080
:10AAB000BDFE0A224846042309211BF0EDFF724B1C
:10AAC000C9F8003022467149484636F039FADFF8B5
:10AAD00044923146404631F0A1FA2246294640468A
:10AAE00036F02EFA3146484631F098FA2246294689
:10AAF000484636F025FA0A2109226548DFF81892FF
:10AB0000DFF818821CF01AFA3B463A46394600979D
:10AB1000604830F025F99B2201230092C021A82231
:10AB20005D4830F01DF93146584631F077FA22463B
:10AB30002946584636F004FA584822F09DF85848FD
:10AB400015F01CFB0923504604221A2122F0F0FBC9
:10AB500022465449504636F0F3F93821524822F043
:10AB600057FD5621514824F0B1FE5621504824F09B
:10AB7000ADFE56214F4824F0A9FE4F4A4F4B92F9A3
:10AB800000104F4A484624F04BFF22464D494846A4
:10AB900036F0D6F94C4B4D48197825F0ADF84C4BB2
:10ABA0004C4A204999604FF0410C4B4983F80CC046
:10ABB00051604A4826F03AFB494802F0DDFD182270
:10ABC0003946484827F03AFA1649474827F04EFEDA
:10ABD0003146404631F022FA22462946404636F0B8
:10ABE000AFF9424B83F8D271A3F8F37103B0BDE81B
:10ABF000F08F00BFF491002000600020149400202A
:10AC0000E87B0020BC7700205C7700207C77002068
:10AC100000780020408C0600352B0300A091002016
:10AC2000B08C06006496002052019001D9620200A7
:10AC300018770020787C0020AC7C0020A07B0020CE
:10AC4000B0760600ED620200688F002041C1050069
:10AC50003877002001630200287800209C770020CC
:10AC6000F4950020DC7C002044780020E89500204A
:10AC7000A1A7030040600020446000203C60002049
:10AC80004C7C0020BCD00020F07F060045790200FB
:10AC90007091002014780020DC7B0020E8910020D7
:10ACA000BC7C00203963020000960020447700201D
:10ACB000E0770020507700201860002080969800F0
:10ACC000489B0020D9F9040038600020507B002008
:10ACD000B07B002020780020000040405C910020E4
:10ACE0009C910020EC770020787A00206C7800207E
:10ACF000607B00200000A0400C7B0020BC8F002067
:10AD000044910020307B0020FC930020CC7C00206C
:10AD100014960020B08F0020407B0020B0770020E8
:10AD20002DE9F047414C424986B0684631F076F94A
:10AD30004049204630F04CFA01E031F0D5FB204686
:10AD400017F026FA0346C820002BF6D0374C08E04F
:10AD500017F044FAC1B2684631F048FA0A2031F0DF
:10AD6000C3FB204617F014FA0346002B2046EFDC05
:10AD7000314F2E48694630F045F93B6803B3DFF8A0
:10AD8000C480DFF8C4A0DFF8A4904546002429461B
:10AD900003A831F043F9694603A831F0A5FA034648
:10ADA00003A80BB12B6AE3B931F0CAF93E68731EF0
:10ADB000A34204F1010409D0A64205F12805E6D812
:10ADC000684631F0BDF906B0BDE8F0875146484607
:10ADD00030F0FEF93B68B342344605F12805D6D879
:10ADE000EEE731F0ADF91549104830F039F8294651
:10ADF00003A831F013F903A90C4830F003F904EB70
:10AE0000840403A831F09CF908EBC404052031F058
:10AE10006BFBD4E9083098470949044830F0D8F969
:10AE2000684631F08DF906B0BDE8F0873CA80020F7
:10AE3000B076060020770600F46F00203C7706000D
:10AE40004477060054600020507706002DE9F04753
:10AE50004D4D2C6882B006467CBB4C4F4FF41651CA
:10AE6000384630F06FFC97F8233203B9FEE74848C4
:10AE70002346394640F24C4214F0A0FF30B9454910
:10AE8000454802B0BDE8F04730F0A2B940F24C426C
:10AE900001213F4815F072F840F24C4201213C4834
:10AEA00015F03CF840F24C41394815F099F83B490F
:10AEB000394830F08DF901232B6031F009FB344D16
:10AEC000DFF8F890DFF8D08007461BE015F0E2F8D5
:10AED00040F24C410446284615F0A2F840F24C419D
:10AEE0008246284615F010F94946034640461CB1F3
:10AEF000BAF1000F00D0ABB92FF0B2FF4FF47A7067
:10AF000031F0F2FA31F0E4FA0346DB1BB34240F2CF
:10AF10004C412846DAD322491F4802B0BDE8F04729
:10AF200030F056B91C48019330F04CF81D491A48CE
:10AF30002FF044FF21460A22174830F0BBF91A4986
:10AF400015482FF03BFF0A225146134830F0B2F962
:10AF5000164911482FF032FF15490F482FF02EFFE8
:10AF6000019B0D4819460A2230F0A4F911490A48FC
:10AF70002FF024FF084830F025F80F49064802B0AA
:10AF8000BDE8F04730F024B91C780020BCD0002088
:10AF9000BC8F0020647706003CA800209477060050
:10AFA00014780600B4770600BC770600C477060064
:10AFB000D8770600E0770600E87706004C95060093
:10AFC00030B51F4885B04FF41651054630F0BAFB36
:10AFD0001C4901A831F022F84FF47A74284630F069
:10AFE0003FFB0346002B284617DC012031F07CFA9A
:10AFF000013CF3D1039BF3B11349144830F0E8F856
:10B00000124801A92FF0FEFF0E4901A831F0A0F867
:10B0100001A831F095F805B030BD30F029FBC1B280
:10B0200001A831F0E3F8012031F05EFA013CD5D1FE
:10B03000039B002BE0D10649044830F0C9F8E3E750
:10B04000BCD00020B0760600407806003CA8002066
:10B05000547806002DE9F04782B0002380460E4662
:10B060008DF806300093ADF80430002900F0878099
:10B0700031F02EFA444D04460DF106074FF0000959
:10B0800031F026FA031BB3F5FA6F66D2284630F08A
:10B09000E7FA002807DC31F01BFAA042F0D231F0C9
:10B0A00017FA0446EAE7284630F0E2FAC0B224284C
:10B0B0008DF80000EFD1284630F0D2FA04280ADCDF
:10B0C00031F006FA001BB0F5FA6F04D2284630F0D2
:10B0D000C7FA0428F4DD0DF1010A284630F0C8FA59
:10B0E0000AF8010B5745F8D1414668468DF806909D
:10B0F00036F074FF0028CED131F0EAF9A0423BD3FC
:10B1000031F0E6F9204F0446002505E031F0E0F982
:10B11000A0421ED3512D20D831F0DAF903461B1B73
:10B12000B3F5FA6F384618D230F09AFA0346002B7E
:10B130003846EBDD30F09CFAC0B22A28705505F194
:10B1400001030DD024280BD0DDB231F0C1F98442C7
:10B15000E0D931F0BDF90446DCE702B0BDE8F08784
:10B160002E440023737031F0B3F9A042F5D202B03F
:10B17000BDE8F04731F0ACB931F0AAF9C0E70349B6
:10B1800003482FF085FF73E7BCD000206C780600E1
:10B190003CA8002070B5A020A8B031F0C1F9054648
:10B1A00001462448FFF756FFA0220021684635F0EB
:10B1B0009FFF284636F024FF29460246044668468B
:10B1C00036F038FF28AB1C442846002304F8A03C86
:10B1D00031F0C0F91849684637F088FD0378562BDE
:10B1E00014D1467804468EB936F00AFF134D024654
:10B1F0002146284636F01EFF204636F001FF2E5429
:10B200002878563818BF012028B070BD0A490B4D68
:10B21000002037F06BFD044636F0F2FE2146024670
:10B22000284636F007FF204636F0EAFE00232B546E
:10B23000E6E700BF8078060088780600A87700203F
:10B240002DE9F843074631F043F94FF47A73064687
:10B2500003FB07F7002441F28738A74256D931F0A3
:10B2600037F9DFF8BC9004460CE031F031F9031BEC
:10B2700043452AD8FFF78EFF89F8000031F028F9FE
:10B28000A0422FD399F80050002DEED0642031F069
:10B290002BF931F01DF9841B31F01AF9B04225D297
:10B2A00031F016F906461B491B482FF087FD1B4954
:10B2B00019482FF083FD18480A22294630F01CF85F
:10B2C000002DCAD02846BDE8F883642099F80050C4
:10B2D00031F00AF931F0FCF8841B31F0F9F8B04292
:10B2E000E1D2DDE731F0F4F80446CBE709490A483A
:10B2F0002FF064FD094908482FF060FD0A22012162
:10B3000005482FF0F9FF2846BDE8F88300252846B8
:10B31000BDE8F8838C7806003CA8002094780600ED
:10B32000A577002070B5A020A8B031F0F9F8054647
:10B3300001462448FFF78EFEA0220021684635F022
:10B34000D7FE284636F05CFE29460246044668468B
:10B3500036F070FE28AB1C442846002304F8A03CBD
:10B3600031F0F8F81849684637F0C0FC0378562BDE
:10B3700014D1467804468EB936F042FE134D02468B
:10B380002146284636F056FE204636F039FE2E5429
:10B390002878563818BF012028B070BD0A490B4DD7
:10B3A000002037F0A3FC044636F02AFE2146024670
:10B3B000284636F03FFE204636F022FE00232B546E
:10B3C000E6E700BF8078060088780600FC9500203C
:10B3D0002DE9F843074631F07BF84FF47A730646BF
:10B3E00003FB07F7002441F28738A74256D931F012
:10B3F0006FF8DFF8BC9004460CE031F069F8031BED
:10B4000043452AD8FFF78EFF89F8000031F060F835
:10B41000A0422FD399F80050002DEED0642031F0D7
:10B4200063F831F055F8841B31F052F8B04225D260
:10B4300031F04EF806461B491B482FF0BFFC1B4954
:10B4400019482FF0BBFC18480A2229462FF054FF58
:10B45000002DCAD02846BDE8F883642099F8005032
:10B4600031F042F831F034F8841B31F031F8B04259
:10B47000E1D2DDE731F02CF80446CBE709490A4870
:10B480002FF09CFC094908482FF098FC0A22012162
:10B4900005482FF031FF2846BDE8F88300252846EF
:10B4A000BDE8F8838C7806003CA80020947806005C
:10B4B000F895002070B50121112034F03BFD0121E9
:10B4C000112034F0BBFD0121222034F033FD002196
:10B4D000222034F0B3FD4FF47A7031F005F81F4D9F
:10B4E0000121222034F0AAFD4FF47A7030F0FCFFE5
:10B4F00028464FF4165130F025F995F8233203B958
:10B50000FEE74FF4FA7030F0EFFF154E42F2107480
:10B51000284630F0A5F80346002B284605DD30F01C
:10B52000A7F8C1B2304630F061FE013CF0D10D49C0
:10B530000B4830F0F5FE58B97820FFF781FE0A4B32
:10B54000187028B1BDE87040084909482FF040BE86
:10B55000BDE87040074906482FF03ABEBCD0002035
:10B56000307B0020B0760600AA770020DC78060049
:10B570003CA80020AC7806002DE9F04107461C48A5
:10B580008846164604462FF03DFD30F0A1FF1949CC
:10B590000546384630F042FD02E0012030F0A4FFBD
:10B5A00030F096FF431BB34220460BD230F058F8E0
:10B5B0000028F2D0204630F05BF8C1B2384630F0B7
:10B5C00015FEEAE7384630F029FF0B490B482FF00B
:10B5D00047FC414609482FF015FD094907482FF05F
:10B5E0003FFC394605482FF00DFD3846BDE8F08197
:10B5F000BCD00020B0760600087906003CA80020E8
:10B60000147906002DE9F0414A494B484B4F4C4E06
:10B61000DFF8508188B02FF03BFD0125394605A8A1
:10B6200030F0FCFC05A940F2DC5202A8FFF7A4FFB1
:10B6300005A830F085FD049C314605A8002C68D093
:10B6400030F0ECFC05A902A830F08EFE044605A8F7
:10B6500030F076FD01343B4905A84AD030F0DEFCDD
:10B6600005A902A830F080FE044605A830F068FD68
:10B67000354905A830F0D2FC05A902A830F074FEC7
:10B68000019005A830F05CFD019B621C02A905A891
:10B6900030F08EFE05A830F0EBFE044605A830F031
:10B6A0004FFD2A4924482FF0DBFB0A222946224875
:10B6B0002FF0BEFE264920482FF0D2FB21461E481F
:10B6C0000A22053C2FF018FE1A2C22491A482BD9C1
:10B6D0002FF0DEFC0A2D2049174812D02FF0D8FC9D
:10B6E0004FF4FA7030F000FF02A8013530F028FD69
:10B6F00094E7414610482FF0CBFC0A2D16490E481E
:10B70000ECD102A830F01CFD0024204608B0BDE8B2
:10B71000F081124908482FF0BBFC02A830F010FD60
:10B72000204608B0BDE8F0810D492FF0B1FC01249E
:10B73000F3E700BF1C7906003CA80020387906001A
:10B740006879060060670600887806007079060050
:10B750007C790600A0790600EC79060040790600A5
:10B7600088790600C87906002DE9F0472DED028B97
:10B770009F49A048A4B02FF08BFC9F491AA830F035
:10B780004DFC4FF4FA621AA902A8FFF7F5FE1AA8B9
:10B7900030F0D6FC99491AA830F040FC1AA902A84A
:10B7A00030F0E2FD04461AA830F0CAFC013400F083
:10B7B000188193498F48934E934D2FF069FC1224C2
:10B7C00031461AA830F02AFC40F6B8321AA905A86A
:10B7D000FFF7D2FE1AA830F0B3FC29461AA830F0C1
:10B7E0001DFC1AA905A830F0BFFD07461AA830F0C5
:10B7F000A7FC013723D00027DFF828923A460DF145
:10B80000680808E00A2F40D030F09AFC48F804ABF2
:10B8100001370AF10102494617A8019230F0FEFBF8
:10B82000019A17A905A830F0B1FDB0F1FF3F82469B
:10B8300017A8E7D117A830F083FC062F28DC73493E
:10B840006C482FF025FC41F2883030F04DFE05A801
:10B8500030F076FC013CB3D16D4917A830F0DEFB27
:10B860004FF47A7217A91AA8FFF786FE1AA830F0CB
:10B8700067FC17A830F064FC02A830F061FC204699
:10B8800024B0BDEC028BBDE8F08717A830F058FC5F
:10B89000DDE91C2708A83B46013205A930F088FDE8
:10B8A000DDF878807A1C43460BA805A930F080FDAE
:10B8B0001F9F08F101023B460EA805A930F078FD54
:10B8C0007A1C209B11A805A930F072FD08A902235B
:10B8D000002214A830F06CFD14A830F0CFFD0A9BB4
:10B8E000022208A917A810EE107A30F061FD17A8FF
:10B8F00030F0C4FD10EE100A34F0BCFD454B4FF0A3
:10B90000113234F00FFE80463846894634F0B2FDDD
:10B9100002460B464046494634F04EFC35F0FAF8F4
:10B92000034617A808EE103A30F00AFC14A830F0CD
:10B9300007FC0EA90323002214A830F039FD14A837
:10B9400030F09CFD109B03220EA917A810EE107A70
:10B9500030F02EFD17A830F091FD10EE100A34F0F3
:10B9600089FD2C4B4FF0113234F0DCFD8046384617
:10B97000894634F07FFD02460B464046494634F086
:10B980001BFC35F0C7F8034617A808EE903A30F0D4
:10B99000D7FB14A830F0D4FB1F490BA830F0C0FC33
:10B9A00008B1B1EE488A1D4911A830F0B9FC08B1C0
:10B9B000F1EE688AB5EE408AF1EE10FA04D0F5EEA9
:10B9C000408AF1EE10FA2FD111A830F0B9FB0EA881
:10B9D00030F0B6FB0BA830F0B3FB08A830F0B0FB9A
:10B9E0002DE70F4903482FF053FB002444E700BF25
:10B9F000087A06003CA80020287A0600347A06005F
:10BA0000507A0600707A0600887A0600C87A060026
:10BA1000BC7A06001111913F9C790600907A0600CD
:10BA2000387A060088780600204921482FF018FA55
:10BA300018EE100A34F01EFD41EC100B06211C48D4
:10BA40002FF076FB1B491A482FF00AFA18EE900ADD
:10BA500034F010FD41EC100B062115482FF068FB67
:10BA6000154913482FF014FB144914A830F0D6FAE6
:10BA70004FF47A7214A917A8FFF77EFD17A830F0CB
:10BA80005FFB14A830F05CFB11A830F059FB0EA846
:10BA900030F056FB0BA830F053FB08A830F050FBF9
:10BAA00005A830F04DFB0124E6E600BF947A0600BD
:10BAB0003CA80020A07A0600AC7A0600BC7A0600FA
:10BAC0002DE9F04F3E48DFF818B187B04FF416511A
:10BAD00007462FF037FE4FF47A7030F005FD3949F4
