:020000022000DC
:10600000000004209DB00500DDB00500DFB00500F4
:10601000E1B00500E3B00500E5B0050000000000B8
:1060200000000000000000000000000019B00500A2
:10603000E9B005000000000039B00500EDB0050032
:1060400079B20500EFB005001983050085D4020080
:106050003DD50200EFB0050049870500EFB005000F
:10606000EFB00500EFB00500EFB00500EFB00500A0
:10607000EFB00500EFB00500EFB00500EFB0050090
:10608000EFB0050069AD0500EFB00500EFB0050009
:10609000EFB00500EFB00500EFB00500EFB0050070
:1060A000EFB00500EFB00500EFB00500EFB0050060
:1060B000EFB005000507050000000000000000002B
:1060C000EFB00500EFB00500EFB005008DB705009B
:1060D000EFB00500EFB00500EFB005006D2904003A
:1060E00065830500EFB00500EFB00500000000007B
:1060F00000000000EFB005000000000005B805003A
:10610000000000000000000000000000000000008F
:10611000000000000000000000000000000000007F
:10612000000000000000000000000000000000006F
:10613000000000000000000000000000000000005F
:10614000000000000000000000000000000000004F
:10615000000000000000000000000000000000003F
:10616000000000000000000000000000000000002F
:10617000000000000000000000000000000000001F
:10618000000000000000000000000000000000000F
:1061900000000000000000000000000000000000FF
:1061A00000000000000000000000000000000000EF
:1061B00000000000000000000000000000000000DF
:1061C00000000000000000000000000000000000CF
:1061D00000000000000000000000000000000000BF
:1061E00000000000000000000000000000000000AF
:1061F000000000000000000000000000000000009F
:10620000F1EE103A43F08073E1EE103A704700BFB0
:1062100010B5054C237833B9044B13B10448AFF3E0
:1062200000800123237010BD5C7500200000000079
:10623000846D060008B5034B1BB103490348AFF357
:10624000008008BD0000000060750020846D06001D
:10625000154B002B08BF134B9D46A3F5803A002138
:106260008B460F461348144A121A37F0DDF80F4BCD
:10627000002B00D098470E4B002B00D098470020F1
:10628000002104000D000D48002802D00C48AFF397
:10629000008037F057F82000290034F057FF37F01E
:1062A0002BF800BF000008000000042000000000E0
:1062B000000000005C750020A0CD00200000000060
:1062C0000000000000207047024A13780133DBB25F
:1062D00013707047C4790020704700BF024A1378DA
:1062E0000133DBB213707047C5790020704700BFDF
:1062F000024A137801331370704700BF047A0020FC
:10630000704700BF704700BF014B01221A707047F1
:10631000A8750020014B01221A707047449000209C
:10632000014B01221A70704794790020014B012221
:106330001A707047D0760020704700BF024B0121D1
:106340002320197036F040B8A479002008B5012147
:10635000112035F0B5FF0121222035F0B1FF0121D8
:10636000152035F0ADFF0121092035F0A9FF0121ED
:10637000112036F029F80121222036F025F80121DC
:10638000152036F021F8BDE808400121092036F03B
:106390001BB800BF08B5042036F034F8034B0128C1
:1063A0000CBF012202221A7008BD00BF0C7600202B
:1063B00008B501210D2035F083FF01210D2036F0B5
:1063C00003F80E20032135F07BFF0E2036F01AF87B
:1063D000002800F0C78001210F2035F071FF012156
:1063E0000F2035F0F1FF1020032135F069FF102058
:1063F00036F008F8002800F0F2800121112035F075
:106400005FFF0121112035F0DFFF1320032135F05C
:1064100057FF132035F0F6FF002800F0DB80012144
:10642000152035F04DFF0121152035F0CDFF14204A
:10643000032135F045FF142035F0E4FF002800F07B
:10644000C4800121092035F03BFF0121092035F0EE
:10645000BBFF0A20032135F033FF0A2035F0D2FFBD
:10646000002800F0AD800121192035F029FF01211D
:10647000192035F0A9FF1820032135F021FF18203D
:1064800035F0C0FF002800F0968001211A2035F079
:1064900017FF01211A2035F097FF1E20032135F048
:1064A0000FFF1E2035F0AEFF00287FD001211D20F8
:1064B00035F006FF01211D2035F086FF1C20032149
:1064C00035F0FEFE1C2035F09DFF002869D001212B
:1064D000032035F0F5FE0121032035F075FF022081
:1064E000032135F0EDFE022035F08CFF002853D05B
:1064F0000121242035F0E4FE0121242035F064FF41
:106500002320032135F0DCFE232035F07BFF00281B
:106510003DD00121222035F0D3FE0121222035F08B
:1065200053FF2120032135F0CBFE212035F06AFFF7
:1065300040B30121042035F0C3FE0121042035F0D1
:1065400043FF0520032135F0BBFE052035F05AFF3F
:1065500098B11F20032135F0B3FE1F2035F052FF04
:1065600028B108BD2049214831F026FA33E7BDE8BB
:1065700008401F491D4831F01FBA1E491B4831F021
:106580001BFAE6E71C49194831F016FAD1E71B4916
:10659000164831F011FABCE71949144831F00CFAE9
:1065A000A6E71849114831F007FA90E716490F4855
:1065B00031F002FA7AE715490C4831F0FDF964E749
:1065C00013490A4831F0F8F94DE71249074831F00C
:1065D000F3F936E71049054831F0EEF91FE70F49A6
:1065E000024831F0E9F908E7201A0600A4A60020C5
:1065F000901C06005C1C0600281C0600F41B06000C
:10660000C01B06008C1B0600581B0600241B06003E
:10661000F01A0600BC1A0600881A0600541A060072
:1066200010B501210C4C222035F04AFE0121222018
:1066300035F0CAFE0949204631F0BEF941F28830F2
:1066400032F046FB0649204631F0B6F9BDE810406D
:106650000021222035F0B8BEA4A60020C41C0600EC
:10666000DC1C06002DE9F843002107460A2035F01E
:1066700027FE642032F02CFB32F01EFB164DDFF8B3
:106680006490DFF86480064632F016FB03469B1BDD
:10669000BB42124C4FF00A001BD235F0B3FEB0FAE9
:1066A00080F25209494640462A6031F085F92B684C
:1066B00022689A4203D0012B05D02360E4E76420CE
:1066C00032F006FBE0E70649404631F0D5F82B688A
:1066D000F3E7BDE8F88300BFBC790020C079002053
:1066E000181D0600F01C0600A4A6002010B501210C
:1066F000222035F0E5FD0121222035F065FE012143
:10670000042035F0DDFD114C0021042035F05CFE45
:106710004FF4967032F0DCFA0D49204631F0ACF8B7
:106720000021042035F050FE40F6B83032F0D0FAA7
:106730000849204631F0A0F80420012135F044FE3C
:10674000BDE8104040F6B83032F0C2BAA4A600202E
:10675000281D0600341D060038B500212DED028BE2
:10676000092035F0ADFD01210A2035F0A9FD0121F8
:106770000A2035F029FE642032F0AAFA2C4A2D486E
:10678000512108F0E5FA002846D02A489FED2A8AD0
:106790000546202108F010FB0021284608F038FBB0
:1067A0000021284608F088FB0121284608F0D8FB84
:1067B0000121284608F028FC0121284608F078FC31
:1067C00040F6FF71284608F091FCB1EE040A284615
:1067D00008F0E4FC0524284608F0A6FC0A2038EE60
:1067E000008A32F075FA631E13F0FF04F3D1DFED77
:1067F000137A68EE277A17EE900A35F0EBFF0B4616
:1068000002460F490F4831F0D7F8BDEC028B08481B
:10681000BDE8384006F026BD0B490A4831F02CF897
:10682000BDEC028B0248BDE8384006F01BBD00BF3E
:10683000CC940020C475002000000000CDCC4C3E5C
:10684000401D0600A4A60020601D06002DE9F043AF
:10685000294883B006F08CFC2749284811F08EFDAA
:1068600026486946032211F08BFD30B124492548A2
:1068700031F0A2F803B0BDE8F08322482249DFF8E6
:106880009880224F054630F0DFFE2149284630F03F
:10689000DBFE6C460DF1060934F8026BB6F5805F3D
:1068A000394628461FD230F0CFFEFF2E1ED839467B
:1068B000284630F0C9FE0F2E8CBF41463946284687
:1068C00030F0C2FE31461022284631F0A5F94C4581
:1068D000E2D10C4830F06AFF0E490A4831F06CF8FA
:1068E00003B0BDE8F083414630F0AEFE4146284695
:1068F00030F0AAFE4146E2E7CC9400205C940020F0
:10690000981D0600A4A60020B01D0600941D0600D8
:10691000FC440600C01D0600A839060010B584B06E
:10692000684619F0ABFB0121222035F0C9FC01219A
:10693000222035F049FD0121042035F0C1FC012160
:10694000042035F041FD0A2032F0C2F90021042074
:1069500035F03AFD0A2032F0BBF90121042035F070
:1069600033FD0A2032F0B4F91A4A6846202119F0A2
:10697000A7FB00240222E1B26846144419F0B6FBDA
:10698000102CF7D10124E1B201226846023419F03B
:10699000ADFB112CF7D10124E1B20022684602348C
:1069A00019F000FC112CF7D1684619F06DFB0A496B
:1069B00004460246094830F0FFFF2CB90849074851
:1069C00030F0FAFF04B010BD0649044830F0F4FF7F
:1069D00004B010BDCC940020D41D0600A4A6002055
:1069E000E81D0600FC1D0600F0B52DED048B91B0EE
:1069F000064601A819F01AFC0121222035F060FC9E
:106A00000121222035F0E0FC002340222C4901A87E
:106A100019F016FC01A80A2119F0AEFC0A2101A800
:106A200019F0B8FC01A819F051FD01A84FF4FA7152
:106A300019F03EFE9FED208B0124214602349FED8C
:106A40001E0BB0EE481AF0EE681A01A8A4B219F0B5
:106A5000A7FC112CF1D132F02FF9074632F02CF9B6
:106A6000C01BB0429FED149B22D20025284635F072
:106A70008FFE41EC180B00242146023401A8A4B279
:106A8000B0EE491AF0EE691AB0EE480AF0EE680A64
:106A900019F086FC102CEFD102351420EDB232F043
:106AA00017F9642DE2D132F007F9C01BB042DCD3F4
:106AB00011B0BDEC048BF0BD000000000000000030
:106AC000CC9400202DE9F04F364A374B11881B78C3
:106AD000364E89B001220546002734488DF818301B
:106AE000ADF8197019F090FE3149324830F0C4FE0B
:106AF0003149304830F0C0FE30492E4830F0BCFEFD
:106B00002B492C4830F0B8FE32F0D6F8AA4601974F
:106B10004FF0000B04463D4606E0032207A930462D
:106B20001AF006F801280DD032F0C6F80023B0EBB9
:106B3000040863EB0509D04579EB0B03EDDB09B0E5
:106B4000BDE8F08FBDF804201D491A4830F034FF2D
:106B50001C49184830F090FE06AA07ABCDE902ABFD
:106B6000CDE90489A346002791461C4614F8013B51
:106B700009F8013B3A4614490E48013730F01CFF32
:106B8000032FF3D132205C46DDE902AB32F0A0F8EE
:106B90003B46019F01210F4406AA3046019719F098
:106BA000CFFEC1E73460002004430600B47A002021
:106BB000141E0600A4A60020341E0600401E060077
:106BC000581E06007C1E0600981E0600F0B5012126
:106BD0008DB00746222035F073FB0121222035F0CD
:106BE000F3FB4FF4967032F073F857481BF09EF9A0
:106BF000564A4FF47A73062104A81BF05DF8062369
:106C0000534A51488DF8233004A91AF0B7FD0028E3
:106C100040F08E804F49504830F016FD0A22BDF8F2
:106C200018104D4830F05CFF4C494B4830F00CFDDB
:106C30000A22BDF81A10484830F052FF4849464829
:106C400030F002FD0A229DF81C10434830F0B4FFDA
:106C50004449414830F0F8FC0A229DF81D103E4896
:106C600030F0AAFF40493C4830F0EEFC04A81BF08D
:106C7000E5F80A220146384830F058FF3B493648CB
:106C800030F0FAFD3A49344830F0DEFC04A81BF03D
:106C9000E1F8384B384A0146002914BF114619461D
:106CA0002D4830F0E9FD35492B4830F0CDFC04A8E3
:106CB0001BF0E2F80A220146274830F037FF30493E
:106CC000254830F0D9FD244830F070FD642031F0C3
:106CD000FFFF31F0F1FF1C4D0646002431F0ECFFC0
:106CE00003469B1BBB4228461CD2CDE90044CDE99C
:106CF00002441AF02DFF694628461AF0EBFD0028E1
:106D0000ECD09DF80530002BE8D19DF80430002B25
:106D1000E4D1009B052BE1D11A490F4830F04CFE1D
:106D20000DB0F0BD18490C4830F046FE0DB0F0BD76
:106D300004461649084830F087FC214610220648D0
:106D400030F008FFC2E700BF58A6002048E8010065
:106D5000916D0200B81E0600A4A60020D01E0600F9
:106D6000E41E0600F81E0600001F0600141F0600A1
:106D70001C1F0600B41E0600B01E0600301F0600D1
:106D8000401F06005C1F0600701F0600441F06001F
:106D900001481AF0DDBD00BF58A60020F0B5344B05
:106DA00093E8030087B00B0C04903248ADF8141040
:106DB0008DF8163020F048FA2E4820F075FA002899
:106DC00050D0FF212B4820F005FB2A4820F0BEFAC6
:106DD00029492A4830F050FD00250A2031F078FF7B
:106DE0002448009529460DF10F0304AA20F002FB68
:106DF000002833D02249214830F03EFD21491F4868
:106E000030F022FC0A229DF80F101C4830F09AFE48
:106E10001D491A4830F030FD1C49184830F014FC68
:106E20009DF80F30A3B11A4F144E2C463946304608
:106E300030F00AFC06AB1C44102214F8081C304643
:106E400030F080FE01359DF80F30ECB2A342EDD852
:106E500010490A4830F010FD07B0F0BD0E49074850
:106E600030F00AFD0D49054830F006FD07B0F0BDD1
:106E700008430600D88F0020A01F0600A4A600200B
:106E8000C01F0600D41F0600E41F0600EC1F06000A
:106E900080550600A8390600F81F0600881F060066
:106EA00010B5B8B004224FF0FF3306921A24112116
:106EB0000322CDE90021CDE904336822CDE9023473
:106EC00008A81E23D42125F0B5FD08A8002125F02F
:106ED00007FE08A825F098F808A8002108F04EFB46
:106EE000012108A824F0FAFF4FF4FA6031F0F0FE17
:106EF00008A825F089F808A8012108F03FFB08A898
:106F0000012124F0EBFF034B089308A824F064FD53
:106F100038B010BD8C63060010B5B8B004224FF035
:106F2000FF3306921A2411210322CDE90021CDE975
:106F300004337A22CDE9023408A81E23FA2125F071
:106F400079FD08A8002125F0CBFD08A825F05CF804
:106F500008A8002108F012FB012108A824F0BEFFB8
:106F60004FF4FA6031F0B4FE08A825F04DF808A8F7
:106F7000012108F003FB012108A824F0AFFF4FF422
:106F8000FA6031F0A5FE08A825F03EF808A8022115
:106F900008F0F4FA012108A824F0A0FF4FF4FA60E9
:106FA00031F096FE034B089308A824F015FD38B085
:106FB00010BD00BF8C6306002DE9F04F85B028217D
:106FC000064602A825F090FE524806F0D1F8514935
:106FD00002A8282225F0ACFE002800F08880814617
:106FE0004D484E49DFF850B1824630F0E5FC4C493F
:106FF000504630F041FC31F05FFE074631F05CFE58
:10700000C01B4FF00008B042444645461CD202A8BF
:1070100025F05AFF08B1002D39D002A825F080FFD5
:10702000E8B12CB302A825F0A7FF002849D11DB173
:10703000B8F1000F3ED14C46C82031F049FE31F086
:107040003BFEC01BB042E2D33649334830F0B4FCBB
:107050003549314830F0B0FC05B0BDE8F08F02A8EA
:1070600025F08AFFD8B9002DE6D0002CE4D0DFE768
:107070002E490190504630F0FFFB02A825F07CFF1E
:10708000019B044690B9002DD2D11C46D4E7019053
:107090005946504630F0F0FB019B1D46BDE7B8F164
:1070A000000F1CD005B12CB9C846C5E7B8F1000FD8
:1070B00027D0CDB11E49184830F0DEFB05B0BDE841
:1070C000F08FB8F1000FF4D101901A49504630F01A
:1070D000D3FB019B002DEDD11C46C846ACE71549FA
:1070E000504630F0C9FBDDE74446C846A4E70E49E8
:1070F000094830F061FC642031F0EAFD05B0BDE8DC
:10710000F08F0C49504630F0B7FB002DD2D1C84665
:1071100092E700BFCC940020A4A6002030200600F7
:1071200048200600B0200600182006008C2006002B
:107130009C20060094200600842006002DE9F84FCC
:107140000121222035F0BCF801212220DFF8249112
:1071500035F03AF90121152035F0B2F8012115205A
:1071600035F032F900234FF4A0724846F02126F0A2
:1071700077F84846032126F013F84FF47841484643
:1071800008F0FCF94FF4FA6031F0A2FD4FF4FC6115
:10719000484608F0F3F94FF4FA6031F099FD1F21E9
:1071A000484608F0EBF94FF4FA6031F091FD3822CF
:1071B00029492A4826F0D8F902210A2035F080F81A
:1071C0004846012108F090FD254B2649C9F81030AA
:1071D0004FF0FF3201234846C9F8142089F81B30CC
:1071E00030F032FA1F49204830F046FB642031F07D
:1071F0006FFD1E4BC9F8103031F05EFD4FF0000AF4
:10720000804641F28736002702E035F0FBF8E8B10E
:1072100031F052FD0023B0EB080463EB0A05A642EF
:1072200077EB05034FF00A00EFDA104B10491148D5
:10723000C9F8103030F008FA0F490B4830F0BCFBA9
:10724000BDE8F84F0021152035F0BEB80B490948BC
:1072500030F0FAF90A49F0E7CC9400206894002055
:1072600014003200C4200600A4A60020140064000C
:10727000082106007C94002020210600E020060062
:10728000F420060010B582B0684626F091F901217D
:10729000222035F015F80121222035F095F84FF421
:1072A000967031F015FD174A6846502126F084F992
:1072B000E0B11549002031F089FA84B22146552207
:1072C000684626F08FF92146684626F0B5F955281C
:1072D00001D002B010BDFF222146684626F082F997
:1072E0002146684626F0A8F9FF2805D00749084836
:1072F00030F062FB02B010BD0649054830F05CFB7F
:10730000E7E700BFCC940020FFFF03004C210600FC
:10731000A4A600203821060070B5012182B01A20F1
:1073200034F0CEFF01211A2035F04EF819480646F8
:107330000AF0B6FC00211A2035F046F89F213046AD
:107340000AF044FE01AC0DF10705002130460AF0B9
:107350003DFE04F8010B0A2031F0BAFCAC42F4D136
:1073600001211A2035F030F89DF80430C82B03D1E4
:107370009DF80530402B06D00749084802B0BDE80B
:10738000704030F019BB9DF80630152BF4D104493C
:10739000F3E700BFB099002078210600A4A60020E2
:1073A0006421060010B5554C4821204628F0AEFF58
:1073B0002046002128F0B4FF0421204628F0B2FF27
:1073C000204628F0A7FF2046E17828F0ADFF2046B0
:1073D00028F0B0FF002840F082804949494830F049
:1073E000EBFA4949474830F047FA2046012128F096
:1073F000A7FF10EE100A35F0EDF902460B464148A2
:10740000424930F0D9FA20460A2128F099FF10EEBF
:10741000100A35F0DFF902460B463A483C4930F095
:10742000CBFA2046172128F08BFF10EE100A35F01A
:10743000D1F902460B463348364930F0BDFA2046B2
:10744000202128F07DFF10EE100A35F0C3F9024626
:107450000B462C48304930F0AFFA20462D2128F059
:107460006FFF10EE100A35F0B5F902460B462548BD
:107470002A4930F0A1FA2046362128F061FF10EEAB
:10748000100A35F0A7F902460B461E48244930F091
:1074900093FA2046432128F053FF10EE100A35F0EE
:1074A00099F902460B4617481E4930F085FA2046E6
:1074B0004C2128F045FF10EE100A35F08BF90246FA
:1074C0000B461048184930F077FA0D490D4830F056
:1074D00073FABDE810404FF4FA7031F0F9BB13496C
:1074E000084830F0C9F91249064830F065FABDE89D
:1074F00010404FF4FA7031F0EBBB00BF88760020EB
:1075000090210600A4A60020BC210600DC21060074
:107510001C2206005C2206009C220600DC220600DB
:107520001C2306005C2306009C230600DC230600C7
:10753000F42306000000000010B50121222034F0E1
:10754000BFFE0121222034F03FFF0121112034F041
:10755000B7FE0121112034F037FF0321042034F05D
:10756000AFFE002034F0FAFD642031F0B1FB802042
:1075700034F024FEC82031F0ABFB042034F072FE5E
:1075800035F016F91CA3D3E9002335F07BF935F06B
:1075900071FCDFED137A07EE100A67EE277A17EE1B
:1075A000900A35F017F90F4B002234F0B5FF35F093
:1075B00019FC0D49044602460C4830F0FDF9042C34
:1075C00005D0BDE810400A49084830F0F5B9BDE8DB
:1075D00010400849054830F0EFB900BFAFF3008014
:1075E000DEC3D6400000E03F24240600A4A600200D
:1075F0008424060054240600CDCCCCCCCCCC6C3FEB
:1076000010B50121222034F05BFE0121222034F04C
:10761000DBFE0121112034F053FE0121112034F052
:10762000D3FE03211F2034F04BFE002034F096FDE2
:10763000642031F04DFB802034F0C0FDC82031F0D3
:1076400047FB1F2034F00EFE19490446194830F05C
:10765000B3F9204635F0ACF813A3D3E9002335F095
:1076600011F935F007FCDFED147A07EE100A67EE2A
:10767000277A17EE900A35F0ADF8104B002234F05F
:107680004BFF35F0AFFB042805D0BDE810400C4996
:10769000084830F091B9BDE810400A49054830F07B
:1076A0008BB900BFAFF30080CDCCCCCCCCCC6C3F41
:1076B000B8240600A4A60020DEC3D6400000E03FA8
:1076C00018250600E824060038B50121222034F0F0
:1076D000F7FD0121222034F077FE0121112034F042
:1076E000EFFD0121112034F06FFE0321042034F05E
:1076F000E7FD03211F2034F0E3FD022034F02EFDCE
:10770000802034F05BFDC82031F0E2FA042034F030
:10771000A9FD002204464249424830F04DF9204676
:1077200035F046F8404B002235F0ACF835F0A2FBBE
:1077300035F050F834A3D3E9002335F0A3F835F041
:1077400099FB35F047F804460D462246374935483F
:107750002B4630F031F92EA3D3E9002320462946E9
:1077600035F016FB40B12CA3D3E90023204629466F
:1077700035F004FB002840D12D492A4830F01CF98F
:10778000C82031F0A5FA1F2034F06CFD35F010F858
:10779000254B002235F076F835F06CFB35F01AF801
:1077A00019A3D3E9002335F06DF835F063FB35F00C
:1077B00011F804460D4622461E491A482B4630F061
:1077C000FBF813A3D3E900232046294635F0E0FA5D
:1077D00038B111A3D3E900232046294635F0CEFA6B
:1077E00028B9BDE8384014490E4830F0E5B8BDE886
:1077F000384012490B4830F0DFB81149094830F0E1
:10780000DBF8BDE7AFF30080ABAAAAAAAAAAFA3FA9
:107810009A999999999909403333333333330B400B
:107820004C250600A4A600200000683F6C25060039
:10783000C8250600FC250600582606002826060056
:107840009825060010B5034B036004461FF0BAF8F4
:10785000204610BDE842060038B501210546042047
:1078600034F02EFD0121042034F0AEFD032115205B
:1078700034F026FD0121242034F022FD00212420B3
:1078800034F0A2FD31F018FA044603E034F0BAFDFA
:1078900001280DD031F010FA03461B1BAB424FF00C
:1078A0001500F3D3BDE838400649074830F084B8E6
:1078B0000146242034F088FDBDE8384003490248E1
:1078C00030F07AB8A0260600A4A600208C26060078
:1078D0002DE9F8430321112034F0F2FC31F0ECF9EA
:1078E0004FF00009804641F28736002706E034F069
:1078F00089FD03460A20A3B131F0EAF931F0DCF941
:107900000023B0EB080463EB0905A64277EB0503FF
:107910004FF01100EBDABDE8F8430549054830F0B7
:107920004BB8BDE8F8430449024830F045B800BF01
:10793000CC260600A4A60020B826060030B583B0E9
:10794000044631F0B9F9054631F0B6F9401BA042C2
:1079500001D303B030BD1A4805F00AFC184A194893
:107960000DF107033A2106F085FF10B315480DF11C
:10797000070106F079FC9DF80730D3B9114806F0ED
:1079800069FC10EE104A104910482FF05DFE2046A9
:1079900034F020FF41EC100B02210C482FF086FE42
:1079A0000B490A4830F008F80A49084830F004F852
:1079B000CFE7094905482FF0FFFF03B030BD00BFF6
:1079C000CC94002024760020E4260600A4A6002003
:1079D000FC260600002706001427060070B50021CB
:1079E0002DED028B092034F06BFC01210A2034F0CC
:1079F00067FC01210A2034F0E7FC642031F068F9CB
:107A0000294A2A48552107F0A3F9002843D02748DE
:107A10009FED278A0546202107F0CEF90021284650
:107A200007F0F6F90021284607F046FA012128461A
:107A300007F096FA0121284607F0E6FA01212846C8
:107A400007F036FB40F6FF71284607F04FFBB1EE1A
:107A5000040A284607F0A2FB0524284607F064FB29
:107A60000A2038EE008A31F033F9631E13F0FF0468
:107A7000F3D1DFED107A68EE277A17EE900A34F032
:107A8000A9FEBDEC028B02460B46BDE870400A49D8
:107A90000A482FF091BFBDEC028B09490748BDE8A9
:107AA00070402FF0E9BE00BFCC940020E4750020A8
:107AB00000000000CDCC4C3E2C270600A4A60020E0
:107AC000601D060008B50221042034F0F9FB0C49C2
:107AD0000222042030F0DAFC0A4B1B78012B02D082
:107AE000022B06D008BDBDE80840074907482FF023
:107AF00063BFBDE80840064904482FF05DBF00BFE2
:107B0000956302000C7600204C270600A4A60020F6
:107B10006427060038B500210546112034F0D0FB5B
:107B200010490322112030F0B1FC642031F0D0F86C
:107B300031F0C2F8044602E034F064FC60B131F088
:107B4000BBF8031BAB424FF01100F5D3BDE8384042
:107B5000054906482FF090BEBDE838400449034867
:107B60002FF08ABEF16202008C270600A4A6002036
:107B7000782706002DE9F0414449054644480AF0BB
:107B8000CBFC002853D0022141480AF02FFD0C21E4
:107B90003F480AF0FDFC3F493F482FF003FD3C48B9
:107BA0000AF07AFD032807D8DFE800F04C510247BD
:107BB0003A4939482FF060FE394937482FF0F2FC36
:107BC00033480AF041FD0C280CD8DFE800F0454F9F
:107BD00054070B0B0B0B590B0B0B4A0031492E486A
:107BE0002FF04AFE31F068F8DFF8E0802A4C284F89
:107BF000064612E031F06CF8414620462FF024FD95
:107C000038460AF021FE10EE100A34F0E3FD41EC94
:107C1000100B022120462FF07FFE31F04DF8034675
:107C20009B1B9D424FF06400E4D8BDE8F081BDE8A5
:107C3000F0411D4918482FF01FBE1C4916482FF06F
:107C40001BFEB9E71A4914482FF016FEB4E719498C
:107C500011482FF011FEAFE717490F482FF00CFE27
:107C6000C0E716490C482FF007FEBBE714490A4845
:107C70002FF002FEB6E7134907482FF0FDFDB1E7EC
:107C8000114905482FF0F8FDACE700BFCC94002067
:107C900068760020A4270600A4A60020B8270600C6
:107CA000BC270600E8270600601D0600B427060072
:107CB000AC270600B0270600DC270600D427060004
:107CC000E0270600E4270600D8270600EC27060078
:107CD0002DE9F04F2DED028B064687B05C4A5D49D9
:107CE0005D4857230BF00EFA002800F0A2805B4994
:107CF0005B48DFF86481DFF888B19FED5A8ADFF8CE
:107D00008491DFF884A12FF0B7FD4FF4C87140F2E1
:107D10009B124FF480538DE80E004046032304224B
:107D20001F210BF011FA4FF47A7030F0D1FF30F0D0
:107D3000C3FF0025074630F0BFFF0346DB1B9E4212
:107D4000404620D90BF0C0F904460BF0E3FD0135A5
:107D500048BB4CF24F339C4209FB05F218DDBAEBED
:107D6000720FE8D340493E482FF06EFC3F4B3C4831
:107D700019680A222FF0B4FE30F09EFF0346DB1B89
:107D80009E424046DED807B0BDEC028BBDE8F08FC6
:107D9000374933482FF058FC31482FF007FD642055
:107DA00030F096FFC7E730F087FFDBF80030C31AEA
:107DB000059330F081FF059BCBF80000184634F0A6
:107DC000F7FC0B46024620A1D1E9000134F084FE05
:107DD00035F050F807EE900A264BF4EEC87AF1EE33
:107DE00010FAB3EE047A1860B3D5F4EEC77AF1EE68
:107DF00010FAAEDD204ADFF894C092F800E01B498B
:107E0000FCEEE77A0EF1010017EE903A0CF80E3016
:107E10009CF800E09CF8013073449CF802E09CF868
:107E200003C07344634400F003009B1010700B60A8
:107E30008FE712490A4807B0BDEC028BBDE8F04F4E
:107E40002FF01ABDAFF3008000000000004CED40A1
:107E5000801A0600CC9400200890002028280600F4
:107E6000A4A6002000007F4370280600D8780020D8
:107E700064280600DC78002045900020F4270600E6
:107E80004C7A0020295C8FC251B81E054890002012
:107E900070B501210446222034F012FA012122207B
:107EA00034F092FA4FF4967030F012FF244805F047
:107EB0005FF9244805F020F8C8B1224800210646A1
:107EC00004F0FCFF0121304604F0AAFF02213046F5
:107ED00004F0BCFF30F0F0FE054602E004F060FF65
:107EE00058B930F0E9FE431B9C423046F6D8BDE855
:107EF0007040154915482FF05FBD124804F070FF1F
:107F000090B1104805F098F810EE100A34F062FCB9
:107F10000B460F4902460D482FF04EFDBDE870405C
:107F20000C490A482FF048BD064805F035F810EE18
:107F3000100A34F04FFC0B4602460749EBE700BF3E
:107F4000CC940020E07A00207C280600A4A6002023
:107F5000C4280600B02806009428060030B583B077
:107F60002921044668460EF0E5FC0F4805F000F9AB
:107F700030F0A2FE054630F09FFE401BA04201D328
:107F800003B030BD0849684629220EF0D5FC28B15F
:107F9000064907482FF010FD03B030BD05490448DD
:107FA0002FF00AFD03B030BDCC940020D828060085
:107FB000A4A60020EC28060010B5012184B02220E0
:107FC00034F07EF90121222034F0FEF94FF47A706A
:107FD00030F07EFE284805F0CBF800234022CDE9A2
:107FE0000132264800931A460F210EF08FFF002819
:107FF0003AD02248224C0FF003F8224884ED021AAE
:1080000084ED000AC4ED010A2FF0D0FB1E491D4883
:108010002FF01AFB206834F0DDFB41EC100B02213D
:1080200018482FF043FB194916482FF00DFB6068E4
:1080300034F0D0FB41EC100B022112482FF036FB3C
:10804000134910482FF000FBA06834F0C3FB41EC4B
:10805000100B02210B482FF05FFC0E49094804B0B9
:10806000BDE810402FF0A8BC0B49064804B0BDE89D
:1080700010402FF0A1BC00BFCC940020087A002053
:108080000C7A0020A4A600201C2906003029060036
:1080900044290600582906000429060010B50C4C96
:1080A000206805F065F82068172105F07DF9206843
:1080B00005F0E4F928B9BDE81040064906482FF05C
:1080C0007BBCBDE81040054903482FF075BC00BFDC
:1080D000D06F00206C290600A4A60020802906008D
:1080E00008B5104805F044F8642030F0F1FD0D4A61
:1080F0000D481D210FF0A8F8642030F0E9FD094A71
:1081000009481D210FF0A0F828B1BDE80840074933
:1081100007482FF051BCBDE80840064904482FF03D
:108120004BBC00BFCC940020D08D0020B0290600AD
:10813000A4A600209829060008B50A4805F018F8FA
:108140000849094869220FF0F1F828B1BDE8084054
:10815000064907482FF030BCBDE8084005490448EF
:108160002FF02ABCCC940020A0750020C429060062
:10817000A4A60020D829060008B508480FF006FA82
:1081800028B9BDE80840064906482FF015BCBDE8EF
:108190000840054903482FF00FBC00BF7479002048
:1081A000F0290600A4A60020082A06002DE9F047C1
:1081B00006462DED028B3B4804F0DAFF39493A4878
:1081C000012300220FF0E6FED8B130F075FDDFF894
:1081D000D8A080464FF00009002705E030F078FD78
:1081E00050460FF0FDFBA0B930F066FD0023B0EB68
:1081F000080463EB0905B44275EB07034FF47A708A
:10820000ECDBBDEC028B29492948BDE8F0472FF093
:10821000D3BB284926482FF017FA23480FF0ACFDAE
:108220000A22014622482FF0F7FC1F480FF082FD7A
:1082300021491F48B0EE408A2FF006FA18EE100AC6
:1082400034F0C8FA41EC100B012119482FF02EFA36
:108250001A4917482FF0F8F913480FF049FD10EEAE
:10826000100A34F0B7FA41EC100B012110482FF03E
:108270001DFA0F482FF09AFAFAEE047AB4EEE78A64
:10828000F1EE10FABDD4DFED0E7AB4EEE78AF1EE2E
:1082900010FAB6DCBDEC028B0A490548BDE8F04790
:1082A0002FF08ABBCC940020907600201C2A060078
:1082B000A4A60020342A0600402A06004C2A060004
:1082C000000070425C2A060000B5012189B022201E
:1082D00033F0F6FF0121222034F076F801210A2044
:1082E00033F0EEFF01210A2034F06EF81C4804F050
:1082F0003FFF1B491B4812220FF0BCFE48B3C820A9
:1083000030F0E6FC174869460FF0D0FEE8B1164998
:1083100016482FF0B1FA164914482FF095F9BDF818
:108320000C1012480A222FF077FC12490F482FF048
:10833000A3FABDF80C30B3F5C87F0AD80E490B4834
:108340002FF03AFB09B05DF804FB0C4907482FF009
:1083500093FA0B4905482FF02FFB09B05DF804FB99
:10836000CC94002004760020882A0600A4A60020D1
:10837000A42A0600AC2A0600BC2A0600D02A060061
:10838000702A060070B535482DED028B04F0F0FE22
:10839000324A334868210FF03BFF4FF4FA7030F057
:1083A00097FC2F480FF074FF2D48012202210FF097
:1083B000B1FFC30741D50A2030F08AFC00249FEDAD
:1083C000298A274D2646E1B228460FF025FFB4EE54
:1083D000C80AF1EE10FAC8BF264604F10104C8BF6E
:1083E000B0EE408A402CEED11F4920482FF02CF9E6
:1083F0000A2231461D482FF00FFC1D491B482FF063
:1084000023F918EE100A34F0E5F941EC100B0221C3
:1084100016482FF04BF9174914482FF02DFAFAEEB1
:10842000047AB4EEE78AF1EE10FA06D4DFED127AA0
:10843000B4EEE78AF1EE10FA07DDBDEC028B0F49CE
:108440000A48BDE870402FF0B7BABDEC028B0C496A
:108450000648BDE870402FF0AFBA00BFCC940020B2
:10846000787500200000C8C2E82A0600A4A60020F3
:10847000002B0600D852060000007042082B0600B0
:10848000202B060008B50121222033F019FF01211D
:10849000222033F099FF094A0948332110F0B6F938
:1084A00028B1BDE80840074907482FF085BABDE864
:1084B0000840064904482FF07FBA00BFCC94002042
:1084C000447B00204C2B0600A4A60020342B060081
:1084D00008B50121222033F0F3FE0121222033F0E0
:1084E00073FF4FF4967030F0F3FB094804F040FE40
:1084F000084811F0CDFB28B1BDE8084006490748FF
:108500002FF05ABABDE80840054904482FF054BA84
:10851000CC940020AC760020602B0600A4A600209E
:10852000742B06000000000038B50121222033F032
:10853000C7FE0121222033F047FF2B4811F0F4FB46
:10854000294811F089FC80283AD12748002111F0F0
:108550002FFC254847F6FF7111F046FC4CF2E02154
:10856000214811F05DFC9FED210A1F4811F01CFC11
:108570001D4811F005FC10EE104A1D491D482FF052
:1085800011F8204634F026F904460D4645EC104B10
:10859000022118482FF08AF8174916482FF06CF975
:1085A0000DA3D3E900232046294634F0FBFB38B164
:1085B0000BA3D3E900232046294634F0D5FB28B984
:1085C000BDE838400D490B482FF0F6B9BDE83840FA
:1085D0000B4908482FF0F0B99A999999999909404F
:1085E0003333333333330B40509400206F128340C6
:1085F000A42B0600A4A60020B02B06008C2B06009E
:10860000B42B060030B5012183B0042033F058FEAE
:108610000121042033F0D8FE0A2030F059FB00215C
:10862000042033F0D1FE0A2030F052FB0121042057
:1086300033F0CAFE0A2030F04BFB2048204A0421C8
:10864000054617F03DFD0024E1B2012228461444FE
:10865000019117F04BFD01990022284617F0A2FD69
:10866000102CF1D14FF47A7030F032FB134D00240E
:108670000122E1B22846144417F094FD102CF7D1E2
:108680004FF47A7030F024FB0C4D0024E1B200224C
:108690002846013417F086FD102CF7D14FF47A707C
:1086A00030F016FB054D00240122E1B228461444A7
:1086B00017F078FD102CF7D103B030BD247B0020DB
:1086C000CC940020F8B55E482DED028B04F050FDEF
:1086D0005C4827F027FD002800F0A98059480F21A9
:1086E00027F0BCFB5748072127F0DEFB55484FF425
:1086F000C05127F0FDFB4FF40051524827F096FC83
:108700009FED510A4F4827F06FFB504950482FF01A
:10871000B3F89FED500A4B4827F03EFB494827F03D
:10872000ABFC4848F0EE408A27F0D6FC18EE900AE1
:10873000B0EE408A34F04EF8044642480D4627F029
:1087400083FDDFED457A3F48B0EE487AA8EEA77A80
:1087500010EE107AF0EE478A27F0D6FC3F49064625
:108760003B482EF071FF45EC104B022138482FF0AA
:10877000D3F83B4936482EF067FF18EE100A34F064
:1087800029F841EC100B022131482FF0C5F835498A
:108790002F482EF059FF18EE900A34F01BF841ECE8
:1087A000100B02212A482FF0B7F82F4928482EF045
:1087B0004BFF2E4B00222046294634F063F834F05C
:1087C00059FB34F007F841EC100B022120482FF040
:1087D000A3F827491E482EF037FF384633F0FAFF3A
:1087E00041EC100B1A4802212FF096F87EB1214976
:1087F00017482FF041F8204915482FF0DDF8BDEC5F
:10880000028B4FF4FA70BDE8F84030F061BA1B49B2
:108810000F482FF031F81A490D482FF0CDF8BDEC74
:10882000028B4FF4FA70BDE8F84030F051BABDEC5D
:10883000028B11490648BDE8F8402FF0BDB800BFD3
:10884000CC940020187A0020CDCCCC3DF82B06002B
:10885000A4A60020A4707D3F6F12833A2C2C060042
:10886000442C0600582C06006C2C06000000244006
:108870007C2C0600D42C0600C82B0600902C060089
:10888000A82C060000B595B06821684629F0B6FA14
:108890000A4804F06DFC684629F0BAFA30B9084974
:1088A00008482FF089F815B05DF804FB0649054823
:1088B0002FF082F815B05DF804FB00BFCC940020C7
:1088C000F42C0600A4A600200C2D060000000000D9
:1088D00030B52DED028B6A4A6A4889B0542106F002
:1088E00037FA002800F0A5809FED670A654806F07A
:1088F00055FC644806F056FC10EE100A33F06AFF8F
:108900005BA3D3E9002304460D4634F04BFA00285C
:1089100000F0978056A3D3E900232046294633F080
:10892000F9FD34F087FAC4B2002C40F09780554826
:1089300006F0FAFBDFED547AC7EE807AF0EE408A5B
:1089400017EE900A33F046FF504B002233F0E2FD61
:1089500049A3D3E9002333F095FF34F08BFA4C4957
:10896000034602A808EE103A2FF04CFFB0EE680A5A
:1089700005A802212FF09AFF05A902A830F04CF8B3
:10898000444930F075F8014643482EF02FFF05A802
:108990002FF0CAFF02A82FF0C7FF404902A82FF00E
:1089A00031FFB0EE480A05A802212FF07FFF05A98C
:1089B00002A830F031F83A4930F05AF8014636480A
:1089C0002EF014FF05A82FF0AFFF02A82FF0ACFF88
:1089D000FDEEC87A5A2217EE900A2346009242F220
:1089E000107144F620622FF0FFFE08EE100A2D49A8
:1089F00002A82FF007FFB8EEC80A05A802212FF041
:108A000055FF05A902A830F007F8274930F030F8E3
:108A1000014621482EF0EAFE05A82FF085FF02A8A6
:108A20002FF082FF1C482EF0C1FE09B0BDEC028B76
:108A300030BD1E4918482EF01FFF09B0BDEC028B57
:108A400030BD22462B460AA1D1E9000133F062FD78
:108A500034F0F0F9C4B2002C3FF469AF14490E4869
:108A60002EF00AFF09B0BDEC028B30BDAFF30080E1
:108A70006666666666660A40000000000088C340BD
:108A8000CC94002080750020333353400000F03F29
:108A9000202D06002C2D0600A4A60020302D060057
:108AA000402D0600482D0600502D0600842D06009E
:108AB0005C2D060008B50121222033F001FC0121C4
:108AC000222033F081FC0B4804F052FB0948552169
:108AD00004F06AFC074804F0D1FC28B1BDE8084066
:108AE000054906482EF068BFBDE808400449034820
:108AF0002EF062BFCC9400209C2D0600A4A600207E
:108B0000B42D060008B50121222033F0D9FB222024
:108B1000012133F059FC084824F03CFB28B1BDE8A2
:108B20000840064906482EF0F1BDBDE80840054959
:108B300003482EF0EBBD00BF70920020E02D060030
:108B4000A4A60020C82D060008B50121222033F07C
:108B5000B7FB0121222033F037FC0121042033F040
:108B6000AFFB0221152033F0ABFB0121042033F0D1
:108B70002BFC4FF4FA7030F0ABF8152033F042FCC8
:108B800028B9BDE80840054905482EF015BFBDE8E5
:108B90000840044902482EF00FBF00BFF42D060024
:108BA000A4A60020082E06002DE9F8430121044662
:108BB000092033F085FB0121092033F005FC012158
:108BC0000A2033F07DFB01210A2033F0FDFB30F059
:108BD00073F8002580464FF0000930F06DF800234F
:108BE000B0EB080663EB0907A64277EB0503F4DB5D
:108BF000064907482EF040FE0021092033F0E4FB2F
:108C0000BDE8F84300210A2033F0DEBB202E060029
:108C1000A4A6002008B50121222033F051FB012138
:108C2000222033F0D1FB4FF4967030F051F801213F
:108C3000112033F045FB1120012133F0C5FB08481A
:108C400026F0DEFF28B1BDE80840064906482EF0B0
:108C5000B3BEBDE80840054903482EF0ADBE00BFD5
:108C6000B8790020302E0600A4A60020442E06006D
:108C700070B501210A2033F023FB01210A2033F0D3
:108C8000A3FB224804F074FA2149204804F0CCFAEE
:108C9000204921482EF0F0FD1C49204823F0DCFF3C
:108CA00068B31E481A21054623F072FF05240023ED
:108CB0001A46FF21284623F081FF4FF4A57030F0BB
:108CC00007F800231946FF22284623F077FF4FF4C8
:108CD000A5702FF0FDFF00221146FF23284623F048
:108CE0006DFF4FF4A5702FF0F3FF013CDFD1234659
:108CF000224621460948BDE8704023F05FBFBDE829
:108D00007040074904482EF057BE00BFCC940020A5
:108D1000A08601005C2E0600A4A600205090002032
:108D2000742E060008B50121222033F0C9FA012172
:108D3000222033F049FB0A4804F01AFA094827F0C8
:108D400071FB030605D4BDE80840074907482EF02B
:108D500033BEBDE80840064904482EF02DBE00BFD2
:108D6000CC94002050B70020A02E0600A4A600201E
:108D70008C2E060010B52DED028B012488B02D4AF3
:108D800002920A23214622208DF818308DF80C40DB
:108D900033F096FA2146222033F016FB264A684625
:108DA000562105F0D5FFA8B3E021684606F004F887
:108DB0009FED220A684606F0F1F9684606F0B4F91C
:108DC00064202FF085FF684606F0AEF964202FF08E
:108DD0007FFF684606F0A8F9DFED197A60EE277A82
:108DE000B0EE408A17EE900A33F0F4FC02460B46D0
:108DF000144815492EF0E0FDDFED147AB4EEE78A51
:108E0000F1EE10FA06D5F6EE007AB4EEE78AF1EE4E
:108E100010FA07DC0E490B482EF0CEFD08B0BDEC71
:108E2000028B10BD0B4907482EF0C6FD08B0BDEC03
:108E3000028B10BD0000A040CC940020333353407F
:108E400000007A44A4A60020D02E06003333333F1E
:108E5000B82E0600F42E060038B52848284C04F039
:108E600087F92849254804F0DFF92449204627F0EE
:108E70004FFF237B73B1244924482EF09DFD2046EB
:108E800028F024F8637A5BB1BDE8384020491F48D8
:108E90002EF092BDBDE838401E491C482EF08CBD16
:108EA000204627F011FD204610EE104A27F01CFD49
:108EB00010EE105A184915482EF0C6FB284633F01C
:108EC00089FC41EC100B022110482EF0EFFB1349F6
:108ED0000E482EF0B9FB204633F07CFC41EC100B21
:108EE00002210A482EF0E2FB0D4908482EF0C4FC8E
:108EF000BDE83840064905482EF05EBDCC94002000
:108F0000C48F0020801A0600082F0600A4A60020A7
:108F10004C2F0600742F0600342F06003C2F06004D
:108F2000442F060000B58BB0114901A809F0D2F812
:108F30000121222033F0C4F90121222033F044FA28
:108F40000C4804F015F90B4A01A82C2109F09CFAF1
:108F500030B1094909482EF02FFD0BB05DF804FB34
:108F6000074906482EF028FD0BB05DF804FB00BF52
:108F700001030108CC940020B82F0600A4A600200D
:108F8000A02F060010B582B0002401212220ADF8E8
:108F9000064033F095F90121222033F015FA4FF401
:108FA00096702FF095FE0121092033F089F92146B2
:108FB000092033F009FA4FF47A702FF089FE0B483C
:108FC0000EF0B4F87F210DF1060208480EF0B6F855
:108FD000BDF80620064843F255039A420CBF0549E6
:108FE00005492EF0E9FC02B010BD00BF507A002008
:108FF000A4A60020CC2F0600E02F060010B51548CF
:1090000028F064FA28B9BDE81040134913482EF03F
:10901000D3BC134911482EF0CFFC0E48022128F092
:109020007FFA10EE104A0F490C482EF00DFB204637
:1090300033F0D0FB41EC100B022108482EF036FB38
:10904000094906482EF018FCBDE8104007490348BE
:109050002EF0B2BCA0BB0020F82F0600A4A6002072
:1090600024300600503006005C30060064300600F4
:1090700070B52A492A4886B004F028FC284804F034
:10908000B1FC1E200B210C220D238DE80F0040F2B5
:10909000E57106230422224804F02CFD4FF47A7077
:1090A0002FF016FE1E4804F01DFE02461C480592D5
:1090B00004F0F6FD03461A48049304F0CFFD06467B
:1090C000174804F0ADFE0446154804F087FE054637
:1090D000134804F061FEDDE9043212490390CDE942
:1090E0000145114800962EF067FC0D4804F0FAFD8A
:1090F0000B2806D00D490C4806B0BDE870402EF094
:109100005BBC074804F0CCFD0C28F3D1044804F004
:10911000A5FD0E28EED10649EDE700BFCC94002056
:109120005C9000208C300600A4A60020B43006001D
:10913000A03006002DE9F0438DB04FF47A72334B26
:10914000059206464FF0000808A80393CDF810805A
:109150002EF0F2F90823012122208DF82C3033F073
:10916000AFF80121222033F02FF91A201EF046FD1E
:10917000274A284B52682848029201A901931EF001
:109180001DFD1EF04BFD00283DD01EF03DFD0228C8
:1091900030D042F2B82103A81EF09CFD1F492048A0
:1091A0002EF06AFB2FF088FD4FF000098046002763
:1091B00001E02FF08DFD2FF07FFD0023B0EB0804C0
:1091C00063EB0905B44275EB07034FF06400F0DB75
:1091D000144913482EF050FB0021222033F0F4F8FC
:1091E00064202FF075FD0121222033F0EDF80DB041
:1091F000BDE8F0830C490A482EF03EFB0B490848B5
:109200002EF0DAFBE8E70A49F5E700BF68610600DF
:10921000447A0020B0690600486000205031060002
:10922000A4A60020603106002C310600143106008F
:10923000CC30060000B585B00023012122208DF836
:10924000073033F03DF80121222033F0BDF84FF410
:1092500096702FF03DFD4FF4C87304221A212C485C
:109260000DF0ACFC2A48B3EE0D0A0DF05BFD9FED4E
:10927000290A27480DF02EFD4FF4FA702FF028FD33
:109280000DF1070303AA224802A90DF0C5FC2249EB
:1092900022482EF0D9F9039833F09CFA41EC100BD8
:1092A00002211E482EF002FA1D491C482EF0CCF96E
:1092B0001C491A482EF0C8F9029833F08BFA41EC99
:1092C000100B022115482EF0F1F9174913482EF022
:1092D000D3FADDED027ABAEE047AF4EEC77AF1EE53
:1092E00010FA06DD9FED117AF4EEC77AF1EE10FA6E
:1092F00006D40F4909482EF05FFB05B05DF804FB6A
:109300000C4906482EF058FB05B05DF804FB00BF81
:10931000147B00200000084278310600A4A600203B
:109320008831060094310600A43106000000704226
:10933000C0310600AC31060070B5144E0021054660
:109340001F20317032F0BCFF114904221F202FF082
:109350009DF82FF0B1FC044601E033786BB92FF093
:10936000ABFC001B8542F8D80A490B482EF024FBC1
:10937000BDE870401F202FF08DB9084906482EF037
:109380001BFBBDE870401F202FF084B9C579002079
:10939000DD620200EC310600A4A60020D8310600F0
:1093A00070B5144E002105460A20317032F088FF56
:1093B000114902220A202FF069F82FF07DFC0446A3
:1093C00001E033786BB92FF077FC001B8542F8D8A9
:1093D0000A490B482EF0F0FABDE870400A202FF041
:1093E00059B9084906482EF0E7FABDE870400A204E
:1093F0002FF050B9C4790020C9620200183206006B
:10940000A4A600200432060008B501210A2032F08B
:1094100057FF01210A2032F0D7FF0121032032F04B
:109420004FFF01211A2032F04BFF0121152032F0AD
:1094300047FF01211E2032F043FF00211A2032F0A5
:10944000C3FF00211E2032F0BFFF0121032032F0B4
:10945000BBFF0121152032F0B7FF4FF4FA602FF067
:1094600037FC01211A2032F0AFFF01211E2032F01B
:10947000ABFF0021032032F0A7FF0021152032F0BE
:10948000A3FF4FF4FA602FF023FC00211A2032F0E2
:109490009BFF00211E2032F097FF0021032032F0B5
:1094A00093FFBDE808400021152032F08DBF00BFBA
:1094B00008B50121222032F003FF0121222032F0E1
:1094C00083FF0121112032F0FBFE0121112032F037
:1094D0007BFF0121112032F077FF074907482EF06A
:1094E000CBF94FF47A702FF0F3FBBDE80840002170
:1094F000112032F069BF00BF30320600A4A6002060
:109500002DE9F04F91B0754907A82FF07BF90121A3
:10951000222032F0D5FE0121222032F055FF4FF4F7
:1095200096702FF0D5FB6E496E482EF0A5F96E4867
:109530001DF080FA4FF4FA702FF0CAFB6A481DF054
:10954000B5FA2FF0B9FB03902FF0B6FB4FF00009EE
:10955000A0F57A772FF0B0FB039BB0EB030A4FF036
:10956000000363EB030B41F287330024534574EB94
:109570000B03C0F2A8802FF09FFBC31B00934FF09A
:10958000000363EB09030193DDE900124FF47A73E2
:1095900000248B4274EB020328DB53481DF056F97C
:1095A000051E5EDBD6D00023CDE904ABDFF83881A1
:1095B000CB460126B9460DAC1F460BE02FF056F9FD
:1095C000214607A82FF0E2F920462FF0ADF9B54269
:1095D0004BDD013640461DF069F90146C9B20A2942
:1095E0002046EBD1B54246DD0127F2E72FF064FBC0
:1095F0000DAC412107460AA82FF038F90AA92046E8
:109600002FF01AF9394920462FF032FA002201468C
:1096100035481DF005FB20462FF086F90AA82FF0EB
:1096200083F9334920462FF0EDF841210AA82FF0A5
:109630001DF90AA920462FF0EFF92C492FF018FA4E
:10964000014628482EF0D2F80AA82FF06DF92046DE
:109650002FF06AF924481DF0F9F8051E4FF00009B3
:10966000A0DA21481DF08CF974E73B464F46D946F5
:10967000002B3FF46FAF1F4920462FF0C3F807A916
:1096800020462FF0C9F9014616482EF0AFF82046C3
:109690002FF04AF9184920462FF0B4F8214607A8C0
:1096A0002FF056FA054620462FF03EF9013514BF3B
:1096B000124913490B482EF07FF907A82FF034F90F
:1096C00011B0BDE8F08F0E4906482EF075F907A8D5
:1096D0002FF02AF911B0BDE8F08F00BFA8390600BD
:1096E00044320600A4A60020AC8F002058320600A9
:1096F0005C32060060320600643206006C320600FE
:10970000803206002DE9F047002107460A2032F09A
:10971000D7FD0021042032F0D3FD0021092032F0D2
:10972000CFFD3449DFF8F080334D344CDFF8ECA046
:10973000032209202EF0AAFE314904220A202EF02D
:10974000A5FE042210462F492EF0A0FE2E492F48D8
:109750002EF092F82FF0B0FA4FF0000906462FF0E5
:10976000ABFA801BB8424FF001011BD22A78237854
:109770001AB185F8009088F800100BB39AF8003001
:1097800084F8009088F80110002BE8D001238AF8B3
:10979000009088F802302FF08FFA801BB8424FF00B
:1097A0000101E3D398F80030012B03D198F8013080
:1097B000012B0FD0BDE8F047154914482EF0FCB836
:1097C0009AF80030002BCAD001238AF8009088F85C
:1097D0000230E0E798F80230012BEBD10D490B483D
:1097E0002EF0EAF80023A8F8003088F80230BDE82F
:1097F000F08700BF15630200449000209479002098
:10980000216302002D63020098320600A4A6002006
:1098100008330600F432060014760020D0760020CB
:1098200008B50121222032F04BFD0121222032F027
:10983000CBFD4FF496702FF04BFA0121042032F04B
:109840003FFD0121042032F0BFFD0121152032F03F
:1098500037FD0021152032F0B7FD01210A2032F03A
:109860002FFD01210A2032F0AFFD0121042032F04A
:10987000ABFDC821152032F043FB4FF4FA602FF006
:1098800027FA0021152032F03BFB4FF47A702FF0BD
:109890001FFA0021042032F097FDC821152032F074
:1098A0002FFB4FF4FA602FF013FABDE808400021B7
:1098B000152032F025BB00BF08B50121222032F06F
:1098C000FFFC0121222032F07FFD0121112032F026
:1098D000F7FC0021112032F077FD0A4803F048FC24
:1098E00008490948562225F0C5FF28B9BDE80840B7
:1098F000064907482EF060B8BDE80840054904480D
:109900002EF05AB8CC940020487600202033060070
:10991000A4A600203833060008B50121222032F029
:10992000CFFC0121222032F04FFD0121112032F025
:10993000C7FC0021112032F047FD0A4803F018FC53
:1099400008490948562225F095FF28B9BDE8084086
:10995000064907482EF030B8BDE8084005490448DC
:109960002EF02AB8CC940020B87500204C330600A5
:10997000A4A600206433060008B50121222032F09D
:109980009FFC0121222032F01FFD0121112032F025
:1099900097FC0021112032F017FD0A4803F0E8FB84
:1099A00008490948562225F065FF28B9BDE8084056
:1099B000064907482EF000B8BDE8084005490448AC
:1099C0002DF0FABFCC940020AC750020783306004F
:1099D000A4A60020903306002DE9F8430121064695
:1099E000112032F06DFC0121222032F069FC11219E
:1099F00062482DF021FC222160482DF01DFC5F48BB
:109A000040F69F712DF012FC00234FF4FA621121F1
:109A10005A482DF0B7FC00234FF4FA622221574830
:109A20002DF0B0FC55482DF0EDFB04224FF0FF3334
:109A30005348152126F058FD51484FF4807126F007
:109A40005FFE50494E4826F04FFE4D48142126F047
:109A50004DFE4B480422022126F04AFD40B94A49F6
:109A60004A482DF0A9FFBDE8F843454826F012BE4C
:109A70002FF022F907462FF01FF9C01BB0F57A7FAF
:109A8000434C4FF0000511D22368002B07DD414AFB
:109A90000023216822F8025B01339942F9DC25603A
:109AA0002FF00AF9C01BB0F57A7FEDD333483A4D59
:109AB0003A4CDFF8DC8040F69F712DF0B7FB0023B5
:109AC0004FF4FA6211212D482DF05CFC00234FF475
:109AD000FA62222129482DF055FC2FF0EDF80746B7
:109AE0002FF0EAF8C01BB0424FF000092ED2D8F890
:109AF0000030002B23DDB5F900E0B4F900C02548A3
:109B0000002206E0D8F8003020F8029C01329A4288
:109B100011DA30F9021B01F516739BB2B3F5966F9B
:109B2000F0D9D8F800308C4502F10102A8BF8C466C
:109B30009A428E46EDDBA5F800E0A4F800C0C8F814
:109B400000902FF0B9F8C01BB042D0D3B4F9001088
:109B50000E480A222DF0C4FFB5F900100B480A2266
:109B60002DF0BEFF002305482B8023802DF04AFBFB
:109B7000BDE8F843024826F08DBD00BFDCBB0020E5
:109B800060B7002089CB0200A4330600A4A6002001
:109B90006092002060900020207B0020407B00200D
:109BA00038B50121154C0546112032F089FB012101
:109BB000222032F085FB204611212DF03DFB20466E
:109BC00022212DF039FB204640F69F712DF02EFB0F
:109BD000204600234FF4FA6211212DF0D3FB00231D
:109BE00020464FF4FA6222212DF0CCFB20462DF0C6
:109BF00009FB2846BDE83840FFF7EEBEDCBB00207D
:109C00002DE9F84F01212DED028B8046242032F002
:109C1000DBFB0021042032F053FB01210A2032F04B
:109C20004FFB0121092032F04BFB00210A2032F0CA
:109C3000CBFB0021092032F0C7FB0121242032F0A8
:109C40003FFB474DDFF82491DFF824A101210A20D2
:109C500032F036FB01210A2032F0B6FB45F0010557
:109C60004FF44070A84700210A2032F0ADFB0021DC
:109C7000042032F025FB4A460121042031F014FF74
:109C800021202FF025F84FF47A702FF021F82FF0D3
:109C900013F831A7D7E9006704464AE032F010FB19
:109CA00001210A2032F090FB4FF44070A8470021B8
:109CB0000A2032F089FB0021042032F001FB4A46E1
:109CC0000121042031F0F0FE834621202FF000F81E
:109CD000584632F06DFD32463B4632F0D3FD33F04C
:109CE00081F8034607EE903A45F63B62013B93420A
:109CF000DFF880C0F8EEE77A4FF000014FF0240063
:109D000025D89CED008A67EE887ABDEEE78A32F0AE
:109D10005BFB18EE101A0A2212482DF0BFFE124902
:109D200010482DF091FC0F482DF040FD64202EF0DE
:109D3000CFFF2EF0C1FF03461B1B43454FF001012F
:109D40004FF00A00AAD3BDEC028BBDE8F88F514654
:109D500004482DF091FDE9E79A779CA223B9E83FEA
:109D600020430600A4A60020BC33060040420F009A
:109D7000C03306005060002029482DE9F0474FF419
:109D8000E131064618F0A2FA01E02EF0A1FF3046BC
:109D900018F0B4FA03464FF49670002BF5D02EF06D
:109DA0008BFFDFF87C9080464FF0000A41F2873647
:109DB00000270EE02EF080FF0023B0EB080463EBD9
:109DC0000A05A64277EB05034FF0640006DB2EF090
:109DD0007FFF484618F092FA0028EBD0114910484E
:109DE0002DF04AFD10490E482DF046FD0F490C4854
:109DF0002DF042FD0B490A482DF03EFD01212220A5
:109E000032F05EFA0021222032F0DEFA4FF47A704E
:109E10002EF05EFFBDE8F0470121222032F0D4BAD7
:109E2000A4A60020D0330600F83306000C34060048
:109E300030B51B4D1B4C93B02846022108F0BAFEEA
:109E400064202EF045FF6A4609A9284609F02AF841
:109E5000154920462DF0F8FB059832F0BBFC41EC8B
:109E6000100B204602212DF021FC104920462DF038
:109E700003FD0F4920462DF0E7FB0E9832F0AAFCB7
:109E800041EC100B204602212DF010FC0949204620
:109E90002DF0F2FC084920462DF0EEFC13B030BD49
:109EA000C8790020A4A600201C3406002C3406002B
:109EB0003834060044340600A839060008B50C4AB8
:109EC0000C4800235D2108F0F7FE28B9BDE80840E2
:109ED00009490A482DF070BD094908482DF06CFD6C
:109EE000FFF7A6FFBDE80840064904482DF064BD11
:109EF000CC940020C87900204C340600A4A6002091
:109F00007C340600A834060010B5044631F05AF936
:109F1000204610BD30B50121A3B02220324C334D74
:109F200032F0CEF90121222032F04EFA4FF4967031
:109F30002EF0CEFE2E4920462DF0E8FB0A211A20F5
:109F400020F0A0F92B4920462DF0E0FB2A4B1A699E
:109F500000920FCB20F02CFB062020F0A7FA0A205D
:109F600020F08EFA44F2340020F0B6FA234920465D
:109F70002DF0CCFB02A820F089F9294620462DF0CF
:109F800063FB02A920462DF077FC02A820F0A6F979
:109F90001B4920462DF058FB02A920462DF06CFCF1
:109FA00002A820F0C9F9174920462DF04DFB02A95F
:109FB00020462DF061FC02A820F0E4F91249204669
:109FC0002DF042FB02A920462DF056FC02A820F0FD
:109FD0005DF9294620462DF037FB02A920462DF0D9
:109FE0004BFC23B030BD00BFA4A6002044350600C2
:109FF000E43406000C350600046000202835060015
:10A00000503506005C3506007C3506002DE9F0432E
:10A0100085B0FFF77FFF002020F09AFA2EF04CFE6B
:10A020004FF00009804641F28736002702E01FF01A
:10A0300089FE88B92EF040FE0023B0EB080463EBE4
:10A040000905A64277EB0503F1DA264926482DF0EB
:10A05000B3FC05B0BDE8F0831FF09AFE234821F061
:10A060005BF9234920482DF0EFFA20491E482DF0D6
:10A07000BDFB20491C482DF0E7FA21F0D5F910EE80
:10A08000100A32F0A7FB41EC100B022116482DF00C
:10A0900043FC194914482DF0D7FA21F08FF910EE3E
:10A0A000100A32F097FB41EC100B02210E482DF004
:10A0B00033FC0D482DF07AFB104901A82EF0A2FBCD
:10A0C00001A90A482EF044FD044601A82EF02CFCFC
:10A0D0000134BAD00A4904482DF06EFC05B0BDE841
:10A0E000F08300BFF0350600A4A60020347B0020DA
:10A0F0008C3506009C350600B4350600CC350600CC
:10A10000DC35060010B58CB0024601900C461348B1
:10A1100013492DF051FC03A8019A1249172323F08B
:10A1200019FC03A823F066FB90B1214603A82DF08B
:10A130008BFA40B90C4909482DF09EFB03A823F087
:10A140004DFB0CB010BD094904482DF095FBF5E717
:10A15000074902482DF090FB0CB010BDA4A60020CA
:10A1600008360600ACB400202C3606001C3606006B
:10A170003C36060030B587B0B1FA81F5044605AA31
:10A180000191042301466D091948039525F0BEFC91
:10A190000121174825F074FC04230DEB030221462E
:10A1A000134825F081FC0021114825F069FC214667
:10A1B00003AA04230E4825F0A9FC04AA04230021C5
:10A1C0000B4825F0A3FC0121094825F059FC214644
:10A1D00005AA0423064825F067FC0021044825F061
:10A1E0004FFCDDE90303834208BF002007B030BD08
:10A1F000A879002030B5012183B0222032F060F828
:10A200003F4D0121222032F0DFF84FF496702EF0FE
:10A210005FFD29783B4825F0A1FB00285AD03A4938
:10A220003A483B4C2DF028FB0121364825F028FC0C
:10A230000021344825F0CCFC0021324825F020FCD8
:10A240004FF47A702EF044FD2E48022125F0D2FC06
:10A2500021460420FFF78EFFA04215D02948032194
:10A2600025F0C8FC21460420FFF784FFA0423BD024
:10A270002448042125F0BEFC21460420FFF77AFF84
:10A28000A04239D0234926E002232B7000230DF190
:10A2900006020DF105011B488DF80530ADF80630BA
:10A2A00025F068FCBDF806309DF805201A491748CE
:10A2B0002DF082FB9DF80530042B05D1BDF806205A
:10A2C00044F603139A4212D0144910482DF074FB3F
:10A2D00003B030BD12490D482DF0CEFA0F490B489E
:10A2E0002DF06AFB03B030BD03232B70CEE70D4980
:10A2F00006482DF061FBEBE704232B70C6E700BF97
:10A3000030600020A879002074360600A4A6002042
:10A31000ADBEEFBECC36060008370600B4360600E8
:10A32000843606003037060010B586B01A4901A8F9
:10A3300003F0D2F99DF90A40BCB9019C17491848AD
:10A340002DF082F9174916482DF07EF9204632F09B
:10A3500041FA41EC100B022111482DF0A7F91249E6
:10A360000F482DF089FA06B010BD0C4903A82EF055
:10A3700049FA03A90A482DF043F90C4908482DF081
:10A3800063F921460A2206482DF0AAFB03A82EF005
:10A39000CBFA06B010BD00BF049000206037060065
:10A3A000A4A6002080440600583706004437060063
:10A3B00008B54421174803F061F916484CF21061C2
:10A3C00003F066F980B1144914482DF0F5FA1148EC
:10A3D00003F0FCF943F2010398420FD0BDE80840B6
:10A3E0000F490E482DF0E8BA0A4803F02DFA094843
:10A3F00003F0ECF943F201039842EFD10949074811
:10A400002DF0DAFAFFF790FFBDE80840064903484F
:10A410002DF0D2BA0490002068370600A4A60020D0
:10A42000F4370600A0370600CC37060038B51B4CC1
:10A430001B4D1C4920462DF007F9284627F098FBB4
:10A4400010EE100A32F0C6F941EC100B2046042140
:10A450002DF062FA144920462DF0F6F8284627F030
:10A46000CFFA10EE100A32F0B5F941EC100B20468D
:10A4700004212DF051FA0D4920462DF0E5F828462B
:10A4800027F01AFB10EE100A32F0A4F941EC100B81
:10A4900020460421BDE838402DF03EBAA4A6002095
:10A4A00054760020203806002C3806003838060084
:10A4B00008B50B4827F0E8F928B1BDE8084009497C
:10A4C00009482DF079BA094907482DF075FAFFF7C8
:10A4D000ADFFBDE80840064903482DF06DBA00BF46
:10A4E0005476002040380600A4A600206C380600F0
:10A4F000983806000000000038B52F4C2F4D304929
:10A5000020462DF0A1F8286832F064F941EC100BD8
:10A51000204602212DF0CAF82A4920462DF0ACF938
:10A52000294920462DF090F8686832F031F91EA3D1
:10A53000D3E9002332F0A6F941EC100B20460221AA
:10A540002DF0B4F8214920462DF096F920492046F7
:10A550002DF07AF8A86832F03DF941EC100B204656
:10A5600002212DF0A3F81B4920462DF085F91A4948
:10A5700020462DF069F8E86832F00AF90CA3D3E917
:10A58000002332F07FF941EC100B204602212DF020
:10A590008DF8204611492DF06FF92046BDE838406E
:10A5A0002DF004B9AFF300807B14AE47E17A843F0D
:10A5B000FCA9F1D24D62503FA4A60020E078002013
:10A5C00094310600C03806005030060044340600BE
:10A5D000C4380600D0380600D4380600DC3806003F
:10A5E00008B51E4802F0C4FD1D480122762127F05F
:10A5F00085FC60B31B491C482DF0DEF90421184886
:10A6000027F090FD0221164827F09CFD03211448F5
:10A6100027F0A8FD0221124827F0B4FD96224FF43E
:10A62000A0710F4827F066FD64202EF051FB0C4806
:10A6300027F0F4FC18B1BDE80840FFF75DBF0B49F7
:10A6400009482DF019F9BDE80840FFF755BFBDE8EE
:10A650000840074904482DF0AFB900BFCC94002052
:10A66000E078002010390600A4A600203839060042
:10A67000E43806002DE9F8434E4F4F4DDFF8449182
:10A68000002138462AF08EFB28462DF08FF84B49E2
:10A6900028462CF0D9FF07F58278444607F20D16BC
:10A6A00014F8011F0B094FF0100228464CD02DF072
:10A6B00049FAB442F4D14048414C424E05462DF08F
:10A6C00075F8414928462CF0BFFF14F8011B0B090F
:10A6D0004FF01002284642D02DF034FAA045F4D1B4
:10A6E00035482DF063F8394933482CF0ADFF97F821
:10A6F0000F31002B49D036492F482DF0BDF8354990
:10A700002D482CF0A1FF97F81031002B38D030499C
:10A7100029482DF0B1F8304927482CF095FF97F8DB
:10A72000113143B32A4924482DF0A6F822482DF0D0
:10A730003DF897F80F312BB197F8103113B197F816
:10A7400011313BBBBDE8F88349462CF07DFF2178F1
:10A75000102228462DF0F6F9B442A1D1ABE73146DC
:10A760002CF072FF14F8011C102228462DF0EAF993
:10A77000A045AAD1B4E719490F482DF07DF8D5E7D7
:10A7800016490D482DF078F8C5E714490A482DF010
:10A7900073F8B4E70748012200212AF027FE0028B9
:10A7A000D0D10F4904482DF067F8BDE8F8430248BE
:10A7B0002CF0FCBFD4760020A4A600205839060057
:10A7C000D4770020941D06006C3906007C39060001
:10A7D0009039060098390600AC3906008C3906001D
:10A7E000BC39060008B50121222031F069FD0121A4
:10A7F000222031F0E9FD0D4802F0BAFC0C4B0B4A67
:10A800000C4860212AF0DCF950B1FFF733FF0A4908
:10A8100007482DF0D1F8BDE8084005202EF058BAC1
:10A82000BDE80840054902482DF0C6B8CC94002088
:10A83000A4A60020D4760020043A0600EC390600D5
:10A840002DE9F04FAB48DFF8A893DFF8A8A3AA4C96
:10A85000AA4EAB4DDFF8A083DFF8A0B383B003F0BE
:10A8600033F8A849A84AA94BC2F808A000274FF01E
:10A870000A0C0F734FF0010182F818C083F818C05A
:10A880001173C3F808A01973A14807F031FE4846B8
:10A8900008F0FEF99F4BC9F8003022469E49484611
:10A8A00032F0EAFC9D48DFF8589308F027FB9C4BF8
:10A8B0003360222306F17000F3669A4BB366394683
:10A8C000C6F8D0014FF4B07232F0AEFD964BC6F828
:10A8D000CC3122469549304632F0CEFC944B954817
:10A8E000C3F808A04FF00A0C4FF0010283F818C01B
:10A8F00053211A7302F036FA8F4B9048904EDFF8CE
:10A9000004A34FF6FF725A600CF0FCFA28462A2185
:10A910000CF00AFC22468B49284632F0ADFC8A48EE
:10A920008A4D0CF03DFC692189480CF0F9FC7D4909
:10A9300040460CF035FD22468649404632F09CFCEC
:10A940008548DFF8C4820DF03FF8122183480DF0EE
:10A9500063FB83480DF00EFD82480DF013FF714933
:10A9600081480FF081F94A2180480FF0CFF958460D
:10A970000FF080FA22467E49584632F07DFC31467F
:10A9800050462DF03FFF22462946504632F074FCD7
:10A990007849794A09681268784B7948DFF86CB2CF
:10A9A000DFF86CA2CDE9002176491B68012215F081
:10A9B000BDFE0A224846042309211BF0EDFF724B1D
:10A9C000C9F8003022467149484632F055FCDFF89C
:10A9D0004492314640462DF015FF22462946404616
:10A9E00032F04AFC314648462DF00CFF22462946FB
:10A9F000484632F041FC0A2109226548DFF81892E6
:10AA0000DFF818821CF01AFA3B463A46394600979E
:10AA100060482CF099FD9B2201230092C021A822BE
:10AA20005D482CF091FD314658462DF0EBFE224654
:10AA30002946584632F020FC584822F09DF85848E4
:10AA400015F01CFB0923504604221A2122F0F0FBCA
:10AA500022465449504632F00FFC3821524822F029
:10AA600057FD5621514824F0B1FE5621504824F09C
:10AA7000ADFE56214F4824F0A9FE4F4A4F4B92F9A4
:10AA800000104F4A484624F04BFF22464D494846A5
:10AA900032F0F2FB4C4B4D48197825F0ADF84C4B99
:10AAA0004C4A204999604FF0410C4B4983F80CC047
:10AAB00051604A4825F0FAFE494802F0DDFD1822AF
:10AAC0003946484826F0FAFD1649474827F00EFA5D
:10AAD000314640462DF096FE22462946404632F049
:10AAE000CBFB424B83F8D271A3F8F37103B0BDE8FE
:10AAF000F08F00BF5C900020006000207C9200205E
:10AB0000507A002024760020C4750020E4750020CF
:10AB100068760020404F0600352A03000890002088
:10AB2000B04F0600CC94002052019001D96202007F
:10AB300080750020E07A0020147B0020087A002035
:10AB4000A8390600ED620200D08D00202989050099
:10AB5000A07500200163020090760020047600209A
:10AB60005C940020447B0020AC76002050940020B0
:10AB7000A1A6030040600020446000203C6000204B
:10AB8000B47A002030BC0020E8420600457802007C
:10AB9000D88F00207C760020447A0020509000203E
:10ABA000247B00203963020068940020AC750020EB
:10ABB00048760020B8750020186000208096980024
:10ABC000B0990020D9F8040038600020B87900203E
:10ABD000187A00208876002000004040C48F0020B2
:10ABE0000490002054760020E0780020D4760020E5
:10ABF000C87900200000A04074790020248E002035
:10AC0000AC8F00209879002064920020347B0020D3
:10AC10007C940020188E0020A8790020187600204F
:10AC20002DE9F047414C424986B068462DF0EAFDD7
:10AC3000404920462CF0C0FE01E02EF049F82046A5
:10AC400017F026FA0346C820002BF6D0374C08E050
:10AC500017F044FAC1B268462DF0BCFE0A202EF06F
:10AC600037F8204617F014FA0346002B2046EFDC95
:10AC7000314F2E4869462CF0B9FD3B6803B3DFF82D
:10AC8000C480DFF8C4A0DFF8A4904546002429461C
:10AC900003A82DF0B7FD694603A82DF019FF034660
:10ACA00003A80BB12B6AE3B92DF03EFE3E68731E7C
:10ACB000A34204F1010409D0A64205F12805E6D813
:10ACC00068462DF031FE06B0BDE8F0875146484693
:10ACD0002CF072FE3B68B342344605F12805D6D805
:10ACE000EEE72DF021FE154910482CF0ADFC294669
:10ACF00003A82DF087FD03A90C482CF077FD04EB89
:10AD0000840403A82DF010FE08EBC40405202DF0E8
:10AD1000DFFFD4E908309847094904482CF04CFE7D
:10AD200068462DF001FE06B0BDE8F087A4A600201D
:10AD3000A8390600183A0600CC6F0020343A060005
:10AD40003C3A060054600020483A06002DE9F047DE
:10AD50004D4D2C6882B006467CBB4C4F4FF41651CB
:10AD600038462DF0E3F897F8233203B9FEE7484858
:10AD70002346394640F24C4214F0A0FF30B9454911
:10AD8000454802B0BDE8F0472CF016BE40F24C42F8
:10AD900001213F4815F072F840F24C4201213C4835
:10ADA00015F03CF840F24C41394815F099F83B4910
:10ADB00039482CF001FE01232B602DF07DFF344D2E
:10ADC000DFF8F890DFF8D08007461BE015F0E2F8D6
:10ADD00040F24C410446284615F0A2F840F24C419E
:10ADE0008246284615F010F94946034640461CB1F4
:10ADF000BAF1000F00D0ABB92CF026FC4FF47A70FA
:10AE00002DF066FF2DF058FF0346DB1BB34240F2E6
:10AE10004C412846DAD322491F4802B0BDE8F0472A
:10AE20002CF0CABD1C4801932CF0C0FC1D491A48E7
:10AE30002CF0B8FB21460A2217482CF02FFE1A49A5
:10AE400015482CF0AFFB0A22514613482CF026FE81
:10AE5000164911482CF0A6FB15490F482CF0A2FB0F
:10AE6000019B0D4819460A222CF018FE11490A4888
:10AE70002CF098FB08482CF099FC0F49064802B0CA
:10AE8000BDE8F0472CF098BD8476002030BC00204F
:10AE9000248E00205C3A0600A4A600208C3A06000E
:10AEA0000C3B0600AC3A0600B43A0600BC3A060079
:10AEB000D03A0600D83A0600E03A06004C580600A0
:10AEC00030B51F4885B04FF4165105462DF02EF8C9
:10AED0001C4901A82DF096FC4FF47A7428462CF0FA
:10AEE000B3FF0346002B284617DC01202DF0F0FEAF
:10AEF000013CF3D1039BF3B1134914482CF05CFDE2
:10AF0000124801A92CF072FC0E4901A82DF014FD85
:10AF100001A82DF009FD05B030BD2CF09DFFC1B298
:10AF200001A82DF057FD01202DF0D2FE013CD5D116
:10AF3000039B002BE0D1064904482CF03DFDE3E7DC
:10AF400030BC0020A8390600383B0600A4A600202B
:10AF50004C3B06002DE9F04782B0002380460E46A8
:10AF60008DF806300093ADF80430002900F087809A
:10AF70002DF0A2FE444D04460DF106074FF00009E6
:10AF80002DF09AFE031BB3F5FA6F66D228462CF01B
:10AF90005BFF002807DC2DF08FFEA042F0D22DF0E1
:10AFA0008BFE0446EAE728462CF056FFC0B2242860
:10AFB0008DF80000EFD128462CF046FF04280ADC6B
:10AFC0002DF07AFE001BB0F5FA6F04D228462CF063
:10AFD0003BFF0428F4DD0DF1010A28462CF03CFF6C
:10AFE0000AF8010B5745F8D1414668468DF806909E
:10AFF00033F090F90028CED12DF05EFEA0423BD375
:10B000002DF05AFE204F0446002505E02DF054FE99
:10B01000A0421ED3512D20D82DF04EFE03461B1BFF
:10B02000B3F5FA6F384618D22CF00EFF0346002B0A
:10B030003846EBDD2CF010FFC0B22A28705505F120
:10B0400001030DD024280BD0DDB22DF035FE844253
:10B05000E0D92DF031FE0446DCE702B0BDE8F08710
:10B060002E44002373702DF027FEA042F5D202B0CB
:10B07000BDE8F0472DF020BE2DF01EFEC0E70349CD
:10B0800003482CF0F9FB73E730BC0020643B06005A
:10B09000A4A6002070B5A020A8B02DF035FE05466E
:10B0A00001462448FFF756FFA0220021684632F0EF
:10B0B000BBF9284633F040F9294602460446684663
:10B0C00033F054F928AB1C442846002304F8A03C74
:10B0D0002DF034FE1849684633F0A4FF0378562B50
:10B0E00014D1467804468EB933F026F9134D024642
:10B0F0002146284633F03AF9204633F01DF92E5404
:10B100002878563818BF012028B070BD0A490B4D69
:10B11000002033F087FF044633F00EF92146024643
:10B12000284633F023F9204633F006F900232B5448
:10B13000E6E700BF783B0600803B06001076002063
:10B140002DE9F84307462DF0B7FD4FF47A73064614
:10B1500003FB07F7002441F28738A74256D92DF0A8
:10B16000ABFDDFF8BC9004460CE02DF0A5FD031B01
:10B1700043452AD8FFF78EFF89F800002DF09CFD8B
:10B18000A0422FD399F80050002DEED064202DF06E
:10B190009FFD2DF091FD841B2DF08EFDB04225D238
:10B1A0002DF08AFD06461B491B482CF0FBF91B4974
:10B1B00019482CF0F7F918480A2229462CF090FC7F
:10B1C000002DCAD02846BDE8F883642099F80050C5
:10B1D0002DF07EFD2DF070FD841B2DF06DFDB04235
:10B1E000E1D2DDE72DF068FD0446CBE709490A48C6
:10B1F0002CF0D8F9094908482CF0D4F90A22012189
:10B2000005482CF06DFC2846BDE8F883002528464B
:10B21000BDE8F883843B0600A4A600208C3B060012
:10B220000D76002070B5A020A8B02DF06DFD05466C
:10B2300001462448FFF78EFEA0220021684632F026
:10B24000F3F8284633F078F8294602460446684663
:10B2500033F08CF828AB1C442846002304F8A03CAB
:10B260002DF06CFD1849684633F0DCFE0378562B50
:10B2700014D1467804468EB933F05EF8134D024679
:10B280002146284633F072F8204633F055F82E5404
:10B290002878563818BF012028B070BD0A490B4DD8
:10B2A000002033F0BFFE044633F046F82146024644
:10B2B000284633F05BF8204633F03EF800232B5449
:10B2C000E6E700BF783B0600803B06006494002060
:10B2D0002DE9F84307462DF0EFFC4FF47A7306464C
:10B2E00003FB07F7002441F28738A74256D92DF017
:10B2F000E3FCDFF8BC9004460CE02DF0DDFC031B02
:10B3000043452AD8FFF78EFF89F800002DF0D4FCC2
:10B31000A0422FD399F80050002DEED064202DF0DC
:10B32000D7FC2DF0C9FC841B2DF0C6FCB04225D201
:10B330002DF0C2FC06461B491B482CF033F91B4973
:10B3400019482CF02FF918480A2229462CF0C8FB7E
:10B35000002DCAD02846BDE8F883642099F8005033
:10B360002DF0B6FC2DF0A8FC841B2DF0A5FCB042FE
:10B37000E1D2DDE72DF0A0FC0446CBE709490A48FD
:10B380002CF010F9094908482CF00CF90A22012187
:10B3900005482CF0A5FB2846BDE8F8830025284683
:10B3A000BDE8F883843B0600A4A600208C3B060081
:10B3B0006094002070B50121112030F081FF01213F
:10B3C000112031F001F80121222030F079FF002115
:10B3D000222030F0F9FF4FF47A702DF079FC1F4DE8
:10B3E0000121222030F0F0FF4FF47A702DF070FC34
:10B3F00028464FF416512CF099FD95F8233203B9E5
:10B40000FEE74FF4FA702DF063FC154E42F2107413
:10B4100028462CF019FD0346002B284605DD2CF0AC
:10B420001BFDC1B230462DF0D5FA013CF0D10D49DB
:10B430000B482DF069FB58B97820FFF781FE0A4BC5
:10B44000187028B1BDE87040084909482CF0B4BA1A
:10B45000BDE87040074906482CF0AEBA30BC002069
:10B4600098790020A839060012760020D43B060007
:10B47000A4A60020A43B06002DE9F04107461C4885
:10B480008846164604462CF0B1F92DF015FC1949F2
:10B49000054638462DF0B6F902E001202DF018FCE3
:10B4A0002DF00AFC431BB34220460BD22CF0CCFCFF
:10B4B0000028F2D020462CF0CFFCC1B238462DF047
:10B4C00089FAEAE738462DF09DFB0B490B482CF032
:10B4D000BBF8414609482CF089F9094907482CF086
:10B4E000B3F8394605482CF081F93846BDE8F081BB
:10B4F00030BC0020A8390600003C0600A4A60020AD
:10B500000C3C06002DE9F0414A494B484B4F4C4E4C
:10B51000DFF8508188B02CF0AFF90125394605A835
:10B520002DF070F905A940F2DC5202A8FFF7A4FF44
:10B5300005A82DF0F9F9049C314605A8002C68D027
:10B540002DF060F905A902A82DF002FB044605A81C
:10B550002DF0EAF901343B4905A84AD02DF052F903
:10B5600005A902A82DF0F4FA044605A82DF0DCF98F
:10B57000354905A82DF046F905A902A82DF0E8FAED
:10B58000019005A82DF0D0F9019B621C02A905A825
:10B590002DF002FB05A82DF05FFB044605A82DF059
:10B5A000C3F92A4924482CF04FF80A222946224898
:10B5B0002CF032FB264920482CF046F821461E4844
:10B5C0000A22053C2CF08CFA1A2C22491A482BD955
:10B5D0002CF052F90A2D2049174812D02CF04CF9C2
:10B5E0004FF4FA702DF074FB02A801352DF09CF990
:10B5F00094E7414610482CF03FF90A2D16490E48B1
:10B60000ECD102A82DF090F90024204608B0BDE846
:10B61000F081124908482CF02FF902A82DF084F986
:10B62000204608B0BDE8F0810D492CF025F9012431
:10B63000F3E700BF143C0600A4A60020303C06003F
:10B64000603C0600582A0600803B0600683C060065
:10B65000743C0600983C0600E43C0600383C0600BA
:10B66000803C0600C03C06002DE9F0472DED028B22
:10B670009F49A048A4B02CF0FFF89F491AA82DF0CC
:10B68000C1F84FF4FA621AA902A8FFF7F5FE1AA84A
:10B690002DF04AF999491AA82DF0B4F81AA902A870
:10B6A0002DF056FA04461AA82DF03EF9013400F0A8
:10B6B000188193498F48934E934D2CF0DDF8122456
:10B6C00031461AA82DF09EF840F6B8321AA905A8FE
:10B6D000FFF7D2FE1AA82DF027F929461AA82DF057
:10B6E00091F81AA905A82DF033FA07461AA82DF0EB
:10B6F0001BF9013723D00027DFF828923A460DF1D5
:10B70000680808E00A2F40D02DF00EF948F804AB85
:10B7100001370AF10102494617A801922DF072F88B
:10B72000019A17A905A82DF025FAB0F1FF3F82462E
:10B7300017A8E7D117A82DF0F7F8062F28DC7349D2
:10B740006C482CF099F841F288302DF0C1FA05A828
:10B750002DF0EAF8013CB3D16D4917A82DF052F84D
:10B760004FF47A7217A91AA8FFF786FE1AA82DF0CF
:10B77000DBF817A82DF0D8F802A82DF0D5F8204650
:10B7800024B0BDEC028BBDE8F08717A82DF0CCF8F3
:10B79000DDE91C2708A83B46013205A92DF0FCF97C
:10B7A000DDF878807A1C43460BA805A92DF0F4F942
:10B7B0001F9F08F101023B460EA805A92DF0ECF9E8
:10B7C0007A1C209B11A805A92DF0E6F908A90223EF
:10B7D000002214A82DF0E0F914A82DF043FA0A9BDA
:10B7E000022208A917A810EE107A2DF0D5F917A893
:10B7F0002DF038FA10EE100A30F0ECFF454B4FF008
:10B80000113231F03FF880463846894630F0E2FF89
:10B8100002460B464046494630F07EFE31F02AFB98
:10B82000034617A808EE103A2DF07EF814A82DF064
:10B830007BF80EA90323002214A82DF0ADF914A85B
:10B840002DF010FA109B03220EA917A810EE107A03
:10B850002DF0A2F917A82DF005FA10EE100A30F01D
:10B86000B9FF2C4B4FF0113231F00CF880463846BE
:10B87000894630F0AFFF02460B464046494630F05D
:10B880004BFE31F0F7FA034617A808EE903A2DF078
:10B890004BF814A82DF048F81F490BA82DF034F9E7
:10B8A00008B1B1EE488A1D4911A82DF02DF908B153
:10B8B000F1EE688AB5EE408AF1EE10FA04D0F5EEAA
:10B8C000408AF1EE10FA2FD111A82DF02DF80EA814
:10B8D0002DF02AF80BA82DF027F808A82DF024F851
:10B8E0002DE70F4903482BF0C7FF002444E700BFB2
:10B8F000003D0600A4A60020203D06002C3D0600C9
:10B90000483D0600683D0600803D0600C03D06003B
:10B91000B43D06001111913F943C0600883D06009D
:10B92000303D0600803B0600204921482BF08CFE6C
:10B9300018EE100A30F04EFF41EC100B06211C48A7
:10B940002BF0EAFF1B491A482BF07EFE18EE900AF6
:10B9500030F040FF41EC100B062115482BF0DCFFC6
:10B96000154913482BF088FF144914A82CF04AFFFE
:10B970004FF47A7214A917A8FFF77EFD17A82CF0D0
:10B98000D3FF14A82CF0D0FF11A82CF0CDFF0EA8E7
:10B990002CF0CAFF0BA82CF0C7FF08A82CF0C4FF9E
:10B9A00005A82CF0C1FF0124E6E600BF8C3D06008F
:10B9B000A4A60020983D0600A43D0600B43D060064
:10B9C0002DE9F04F3E48DFF818B187B04FF416511B
:10B9D00007462CF0ABFA4FF47A702DF079F939491B
:10B9E00038462BF049FF2DF067F9012306464FF04A
:10B9F000000A019341F26F784FF0000902E0012044
:10BA00002DF066F92DF058F90023841B63EB0A052D
:10BA1000A04579EB0503384615DB2CF015FA002814
:10BA2000EDD003A839462CF083F9594626482BF06F
:10BA300023FF03A924482BF0D9FE03A82CF074FFA0
:10BA400000230193DBE7019BEBB920491E482BF053
:10BA500013FFFFF757FDA0B1FFF706FE30B11C49F9
:10BA600019482BF009FF07B0BDE8F08F19491648B7
:10BA70002BF002FF184914482BF0FEFE07B0BDE87A
:10BA8000F08F1649F3E70121092030F019FC00215D
:10BA9000092030F099FCC8202DF01AF90121092065
:10BAA00030F092FC4FF4FA602DF012F900210920D9
:10BAB00030F08AFC4FF47A702DF00AF9C5E700BF28
:10BAC00030BC0020E03D0600A4A60020003E060099
:10BAD000483E06003C3E0600243E0600183E060096
